{
  "_format": "hh-sol-artifact-1",
  "contractName": "Events",
  "sourceName": "contracts/Events.sol",
  "abi": [
    {
      "inputs": [
        {
          "internalType": "address payable",
          "name": "_owner",
          "type": "address"
        }
      ],
      "stateMutability": "nonpayable",
      "type": "constructor"
    },
    {
      "anonymous": false,
      "inputs": [
        {
          "indexed": true,
          "internalType": "address",
          "name": "owner",
          "type": "address"
        },
        {
          "indexed": true,
          "internalType": "address",
          "name": "approved",
          "type": "address"
        },
        {
          "indexed": true,
          "internalType": "uint256",
          "name": "tokenId",
          "type": "uint256"
        }
      ],
      "name": "Approval",
      "type": "event"
    },
    {
      "anonymous": false,
      "inputs": [
        {
          "indexed": true,
          "internalType": "address",
          "name": "owner",
          "type": "address"
        },
        {
          "indexed": true,
          "internalType": "address",
          "name": "operator",
          "type": "address"
        },
        {
          "indexed": false,
          "internalType": "bool",
          "name": "approved",
          "type": "bool"
        }
      ],
      "name": "ApprovalForAll",
      "type": "event"
    },
    {
      "anonymous": false,
      "inputs": [
        {
          "indexed": false,
          "internalType": "uint256",
          "name": "id",
          "type": "uint256"
        },
        {
          "indexed": false,
          "internalType": "string",
          "name": "name",
          "type": "string"
        },
        {
          "indexed": false,
          "internalType": "string",
          "name": "line2",
          "type": "string"
        },
        {
          "indexed": false,
          "internalType": "string",
          "name": "_dateStr",
          "type": "string"
        },
        {
          "indexed": false,
          "internalType": "uint256",
          "name": "cantTokenMax",
          "type": "uint256"
        },
        {
          "indexed": false,
          "internalType": "uint256",
          "name": "price",
          "type": "uint256"
        },
        {
          "indexed": false,
          "internalType": "uint256",
          "name": "dateOff",
          "type": "uint256"
        },
        {
          "indexed": false,
          "internalType": "uint256",
          "name": "dateEvent",
          "type": "uint256"
        },
        {
          "indexed": false,
          "internalType": "string",
          "name": "urlImg",
          "type": "string"
        },
        {
          "indexed": false,
          "internalType": "bool",
          "name": "freeEvent",
          "type": "bool"
        },
        {
          "indexed": false,
          "internalType": "bool",
          "name": "paused",
          "type": "bool"
        }
      ],
      "name": "NewEvent",
      "type": "event"
    },
    {
      "anonymous": false,
      "inputs": [
        {
          "indexed": true,
          "internalType": "address",
          "name": "from",
          "type": "address"
        },
        {
          "indexed": true,
          "internalType": "address",
          "name": "to",
          "type": "address"
        },
        {
          "indexed": true,
          "internalType": "uint256",
          "name": "tokenId",
          "type": "uint256"
        }
      ],
      "name": "Transfer",
      "type": "event"
    },
    {
      "inputs": [
        {
          "internalType": "string",
          "name": "_name",
          "type": "string"
        },
        {
          "internalType": "string",
          "name": "_line2",
          "type": "string"
        },
        {
          "internalType": "string",
          "name": "_dateStr",
          "type": "string"
        },
        {
          "internalType": "uint256",
          "name": "_cantTokenMax",
          "type": "uint256"
        },
        {
          "internalType": "uint256",
          "name": "_price",
          "type": "uint256"
        },
        {
          "internalType": "uint256",
          "name": "_dateOff",
          "type": "uint256"
        },
        {
          "internalType": "uint256",
          "name": "_dateEvent",
          "type": "uint256"
        },
        {
          "internalType": "string",
          "name": "_urlImg",
          "type": "string"
        },
        {
          "internalType": "bool",
          "name": "_freeEvent",
          "type": "bool"
        },
        {
          "internalType": "bool",
          "name": "_paused",
          "type": "bool"
        }
      ],
      "name": "addEvent",
      "outputs": [],
      "stateMutability": "payable",
      "type": "function"
    },
    {
      "inputs": [
        {
          "internalType": "address",
          "name": "to",
          "type": "address"
        },
        {
          "internalType": "uint256",
          "name": "tokenId",
          "type": "uint256"
        }
      ],
      "name": "approve",
      "outputs": [],
      "stateMutability": "nonpayable",
      "type": "function"
    },
    {
      "inputs": [
        {
          "internalType": "address",
          "name": "owner",
          "type": "address"
        }
      ],
      "name": "balanceOf",
      "outputs": [
        {
          "internalType": "uint256",
          "name": "",
          "type": "uint256"
        }
      ],
      "stateMutability": "view",
      "type": "function"
    },
    {
      "inputs": [
        {
          "internalType": "uint256",
          "name": "_price",
          "type": "uint256"
        },
        {
          "internalType": "uint256",
          "name": "_cantTokenMax",
          "type": "uint256"
        }
      ],
      "name": "calcFee",
      "outputs": [
        {
          "internalType": "uint256",
          "name": "",
          "type": "uint256"
        }
      ],
      "stateMutability": "view",
      "type": "function"
    },
    {
      "inputs": [
        {
          "internalType": "address",
          "name": "ownerEvent",
          "type": "address"
        }
      ],
      "name": "countEvent",
      "outputs": [
        {
          "internalType": "uint256",
          "name": "",
          "type": "uint256"
        }
      ],
      "stateMutability": "view",
      "type": "function"
    },
    {
      "inputs": [
        {
          "internalType": "uint256",
          "name": "tokenId",
          "type": "uint256"
        }
      ],
      "name": "getApproved",
      "outputs": [
        {
          "internalType": "address",
          "name": "",
          "type": "address"
        }
      ],
      "stateMutability": "view",
      "type": "function"
    },
    {
      "inputs": [
        {
          "internalType": "address",
          "name": "_owner",
          "type": "address"
        }
      ],
      "name": "getByOwnerIdTikets",
      "outputs": [
        {
          "internalType": "uint256[]",
          "name": "",
          "type": "uint256[]"
        }
      ],
      "stateMutability": "view",
      "type": "function"
    },
    {
      "inputs": [],
      "name": "getCounter",
      "outputs": [
        {
          "internalType": "uint256",
          "name": "",
          "type": "uint256"
        }
      ],
      "stateMutability": "view",
      "type": "function"
    },
    {
      "inputs": [
        {
          "internalType": "address",
          "name": "_EventOwner",
          "type": "address"
        },
        {
          "internalType": "uint256",
          "name": "_idEvt",
          "type": "uint256"
        }
      ],
      "name": "getEventById",
      "outputs": [
        {
          "components": [
            {
              "internalType": "uint256",
              "name": "id",
              "type": "uint256"
            },
            {
              "internalType": "string",
              "name": "namEvt",
              "type": "string"
            },
            {
              "internalType": "string",
              "name": "line2",
              "type": "string"
            },
            {
              "internalType": "string",
              "name": "dateStr",
              "type": "string"
            },
            {
              "internalType": "uint256",
              "name": "cantTokenMax",
              "type": "uint256"
            },
            {
              "internalType": "uint256",
              "name": "price",
              "type": "uint256"
            },
            {
              "internalType": "uint256",
              "name": "dateOff",
              "type": "uint256"
            },
            {
              "internalType": "uint256",
              "name": "dateEvent",
              "type": "uint256"
            },
            {
              "internalType": "uint256",
              "name": "contTikets",
              "type": "uint256"
            },
            {
              "internalType": "string",
              "name": "urlImg",
              "type": "string"
            },
            {
              "internalType": "bool",
              "name": "freeEvent",
              "type": "bool"
            },
            {
              "internalType": "bool",
              "name": "paused",
              "type": "bool"
            }
          ],
          "internalType": "struct Events.EventSt",
          "name": "",
          "type": "tuple"
        }
      ],
      "stateMutability": "view",
      "type": "function"
    },
    {
      "inputs": [
        {
          "internalType": "address",
          "name": "ownerEvent",
          "type": "address"
        }
      ],
      "name": "getEventsByOwner",
      "outputs": [
        {
          "components": [
            {
              "internalType": "uint256",
              "name": "id",
              "type": "uint256"
            },
            {
              "internalType": "string",
              "name": "namEvt",
              "type": "string"
            },
            {
              "internalType": "string",
              "name": "line2",
              "type": "string"
            },
            {
              "internalType": "string",
              "name": "dateStr",
              "type": "string"
            },
            {
              "internalType": "uint256",
              "name": "cantTokenMax",
              "type": "uint256"
            },
            {
              "internalType": "uint256",
              "name": "price",
              "type": "uint256"
            },
            {
              "internalType": "uint256",
              "name": "dateOff",
              "type": "uint256"
            },
            {
              "internalType": "uint256",
              "name": "dateEvent",
              "type": "uint256"
            },
            {
              "internalType": "uint256",
              "name": "contTikets",
              "type": "uint256"
            },
            {
              "internalType": "string",
              "name": "urlImg",
              "type": "string"
            },
            {
              "internalType": "bool",
              "name": "freeEvent",
              "type": "bool"
            },
            {
              "internalType": "bool",
              "name": "paused",
              "type": "bool"
            }
          ],
          "internalType": "struct Events.EventSt[]",
          "name": "",
          "type": "tuple[]"
        }
      ],
      "stateMutability": "view",
      "type": "function"
    },
    {
      "inputs": [],
      "name": "getFeesSum",
      "outputs": [
        {
          "internalType": "uint256",
          "name": "",
          "type": "uint256"
        }
      ],
      "stateMutability": "view",
      "type": "function"
    },
    {
      "inputs": [
        {
          "internalType": "address",
          "name": "owner",
          "type": "address"
        },
        {
          "internalType": "address",
          "name": "operator",
          "type": "address"
        }
      ],
      "name": "isApprovedForAll",
      "outputs": [
        {
          "internalType": "bool",
          "name": "",
          "type": "bool"
        }
      ],
      "stateMutability": "view",
      "type": "function"
    },
    {
      "inputs": [],
      "name": "name",
      "outputs": [
        {
          "internalType": "string",
          "name": "",
          "type": "string"
        }
      ],
      "stateMutability": "view",
      "type": "function"
    },
    {
      "inputs": [
        {
          "internalType": "address payable",
          "name": "_EventOwner",
          "type": "address"
        },
        {
          "internalType": "uint256",
          "name": "_idEvt",
          "type": "uint256"
        }
      ],
      "name": "newTiket",
      "outputs": [],
      "stateMutability": "payable",
      "type": "function"
    },
    {
      "inputs": [
        {
          "internalType": "uint256",
          "name": "tokenId",
          "type": "uint256"
        }
      ],
      "name": "ownerOf",
      "outputs": [
        {
          "internalType": "address",
          "name": "",
          "type": "address"
        }
      ],
      "stateMutability": "view",
      "type": "function"
    },
    {
      "inputs": [
        {
          "internalType": "address",
          "name": "from",
          "type": "address"
        },
        {
          "internalType": "address",
          "name": "to",
          "type": "address"
        },
        {
          "internalType": "uint256",
          "name": "tokenId",
          "type": "uint256"
        }
      ],
      "name": "safeTransferFrom",
      "outputs": [],
      "stateMutability": "nonpayable",
      "type": "function"
    },
    {
      "inputs": [
        {
          "internalType": "address",
          "name": "from",
          "type": "address"
        },
        {
          "internalType": "address",
          "name": "to",
          "type": "address"
        },
        {
          "internalType": "uint256",
          "name": "tokenId",
          "type": "uint256"
        },
        {
          "internalType": "bytes",
          "name": "_data",
          "type": "bytes"
        }
      ],
      "name": "safeTransferFrom",
      "outputs": [],
      "stateMutability": "nonpayable",
      "type": "function"
    },
    {
      "inputs": [
        {
          "internalType": "address",
          "name": "operator",
          "type": "address"
        },
        {
          "internalType": "bool",
          "name": "approved",
          "type": "bool"
        }
      ],
      "name": "setApprovalForAll",
      "outputs": [],
      "stateMutability": "nonpayable",
      "type": "function"
    },
    {
      "inputs": [
        {
          "internalType": "bool",
          "name": "_paused",
          "type": "bool"
        }
      ],
      "name": "setPausedContract",
      "outputs": [],
      "stateMutability": "nonpayable",
      "type": "function"
    },
    {
      "inputs": [
        {
          "internalType": "uint256",
          "name": "_idEvt",
          "type": "uint256"
        },
        {
          "internalType": "bool",
          "name": "_paused",
          "type": "bool"
        }
      ],
      "name": "setPausedEvent",
      "outputs": [],
      "stateMutability": "nonpayable",
      "type": "function"
    },
    {
      "inputs": [
        {
          "internalType": "bytes4",
          "name": "interfaceId",
          "type": "bytes4"
        }
      ],
      "name": "supportsInterface",
      "outputs": [
        {
          "internalType": "bool",
          "name": "",
          "type": "bool"
        }
      ],
      "stateMutability": "view",
      "type": "function"
    },
    {
      "inputs": [],
      "name": "symbol",
      "outputs": [
        {
          "internalType": "string",
          "name": "",
          "type": "string"
        }
      ],
      "stateMutability": "view",
      "type": "function"
    },
    {
      "inputs": [
        {
          "internalType": "uint256",
          "name": "index",
          "type": "uint256"
        }
      ],
      "name": "tokenByIndex",
      "outputs": [
        {
          "internalType": "uint256",
          "name": "",
          "type": "uint256"
        }
      ],
      "stateMutability": "view",
      "type": "function"
    },
    {
      "inputs": [
        {
          "internalType": "address",
          "name": "owner",
          "type": "address"
        },
        {
          "internalType": "uint256",
          "name": "index",
          "type": "uint256"
        }
      ],
      "name": "tokenOfOwnerByIndex",
      "outputs": [
        {
          "internalType": "uint256",
          "name": "",
          "type": "uint256"
        }
      ],
      "stateMutability": "view",
      "type": "function"
    },
    {
      "inputs": [
        {
          "internalType": "uint256",
          "name": "_tokenId",
          "type": "uint256"
        }
      ],
      "name": "tokenURI",
      "outputs": [
        {
          "internalType": "string",
          "name": "",
          "type": "string"
        }
      ],
      "stateMutability": "view",
      "type": "function"
    },
    {
      "inputs": [],
      "name": "totalSupply",
      "outputs": [
        {
          "internalType": "uint256",
          "name": "",
          "type": "uint256"
        }
      ],
      "stateMutability": "view",
      "type": "function"
    },
    {
      "inputs": [],
      "name": "transferFees",
      "outputs": [],
      "stateMutability": "nonpayable",
      "type": "function"
    },
    {
      "inputs": [
        {
          "internalType": "address",
          "name": "from",
          "type": "address"
        },
        {
          "internalType": "address",
          "name": "to",
          "type": "address"
        },
        {
          "internalType": "uint256",
          "name": "tokenId",
          "type": "uint256"
        }
      ],
      "name": "transferFrom",
      "outputs": [],
      "stateMutability": "nonpayable",
      "type": "function"
    }
  ],
  "bytecode": "0x60806040526000600b60006101000a81548160ff0219169083151502179055503480156200002c57600080fd5b506040516200549438038062005494833981810160405281019062000052919062000274565b6040518060400160405280600c81526020017f436865636b496e4e4654563100000000000000000000000000000000000000008152506040518060400160405280600381526020017f43494e00000000000000000000000000000000000000000000000000000000008152508160009080519060200190620000d6929190620001ad565b508060019080519060200190620000ef929190620001ad565b5050506000600a8190555080600d60006101000a81548173ffffffffffffffffffffffffffffffffffffffff021916908373ffffffffffffffffffffffffffffffffffffffff16021790555060006013819055506019600d60146101000a81548167ffffffffffffffff021916908367ffffffffffffffff1602179055506000600c819055506703782dace9d90000600e60006101000a81548167ffffffffffffffff021916908367ffffffffffffffff1602179055505062000353565b828054620001bb90620002d4565b90600052602060002090601f016020900481019282620001df57600085556200022b565b82601f10620001fa57805160ff19168380011785556200022b565b828001600101855582156200022b579182015b828111156200022a5782518255916020019190600101906200020d565b5b5090506200023a91906200023e565b5090565b5b80821115620002595760008160009055506001016200023f565b5090565b6000815190506200026e8162000339565b92915050565b6000602082840312156200028757600080fd5b600062000297848285016200025d565b91505092915050565b6000620002ad82620002b4565b9050919050565b600073ffffffffffffffffffffffffffffffffffffffff82169050919050565b60006002820490506001821680620002ed57607f821691505b602082108114156200030457620003036200030a565b5b50919050565b7f4e487b7100000000000000000000000000000000000000000000000000000000600052602260045260246000fd5b6200034481620002a0565b81146200035057600080fd5b50565b61513180620003636000396000f3fe6080604052600436106101b75760003560e01c806374c2ad63116100ec578063b88d4fde1161008a578063c87b56dd11610064578063c87b56dd14610647578063d0506b2514610684578063e19a7e05146106a0578063e985e9c5146106dd576101b7565b8063b88d4fde146105eb578063bf94afd914610614578063c2fbe7bc14610630576101b7565b80638fbae8a2116100c65780638fbae8a21461051d57806395d89b411461055a578063a22cb46514610585578063af70f1cf146105ae576101b7565b806374c2ad631461048c5780637beea3c0146104c95780638ada066e146104f2576101b7565b80632f745c59116101595780634f6ccce7116101335780634f6ccce714610398578063592b97d1146103d55780636352211e1461041257806370a082311461044f576101b7565b80632f745c59146103095780633aea79201461034657806342842e0e1461036f576101b7565b8063095ea7b311610195578063095ea7b31461026157806311769de81461028a57806318160ddd146102b557806323b872dd146102e0576101b7565b806301ffc9a7146101bc57806306fdde03146101f9578063081812fc14610224575b600080fd5b3480156101c857600080fd5b506101e360048036038101906101de91906135a0565b61071a565b6040516101f0919061415f565b60405180910390f35b34801561020557600080fd5b5061020e61072c565b60405161021b919061417a565b60405180910390f35b34801561023057600080fd5b5061024b6004803603810190610246919061376e565b6107be565b60405161025891906140b4565b60405180910390f35b34801561026d57600080fd5b506102886004803603810190610283919061353b565b610843565b005b34801561029657600080fd5b5061029f61095b565b6040516102ac9190614500565b60405180910390f35b3480156102c157600080fd5b506102ca610965565b6040516102d79190614500565b60405180910390f35b3480156102ec57600080fd5b5061030760048036038101906103029190613435565b610972565b005b34801561031557600080fd5b50610330600480360381019061032b919061353b565b6109d2565b60405161033d9190614500565b60405180910390f35b34801561035257600080fd5b5061036d60048036038101906103689190613577565b610a77565b005b34801561037b57600080fd5b5061039660048036038101906103919190613435565b610aee565b005b3480156103a457600080fd5b506103bf60048036038101906103ba919061376e565b610b0e565b6040516103cc9190614500565b60405180910390f35b3480156103e157600080fd5b506103fc60048036038101906103f79190613394565b610ba5565b6040516104099190614500565b60405180910390f35b34801561041e57600080fd5b506104396004803603810190610434919061376e565b610bf1565b60405161044691906140b4565b60405180910390f35b34801561045b57600080fd5b5061047660048036038101906104719190613394565b610ca3565b6040516104839190614500565b60405180910390f35b34801561049857600080fd5b506104b360048036038101906104ae9190613394565b610d5b565b6040516104c0919061411b565b60405180910390f35b3480156104d557600080fd5b506104f060048036038101906104eb9190613797565b6110b4565b005b3480156104fe57600080fd5b50610507611236565b6040516105149190614500565b60405180910390f35b34801561052957600080fd5b50610544600480360381019061053f919061353b565b611240565b60405161055191906144bc565b60405180910390f35b34801561056657600080fd5b5061056f611377565b60405161057c919061417a565b60405180910390f35b34801561059157600080fd5b506105ac60048036038101906105a791906134ff565b611409565b005b3480156105ba57600080fd5b506105d560048036038101906105d091906137d3565b61141f565b6040516105e29190614500565b60405180910390f35b3480156105f757600080fd5b50610612600480360381019061060d9190613484565b611479565b005b61062e600480360381019061062991906133bd565b6114db565b005b34801561063c57600080fd5b506106456118eb565b005b34801561065357600080fd5b5061066e6004803603810190610669919061376e565b611a20565b60405161067b919061417a565b60405180910390f35b61069e60048036038101906106999190613633565b611b6b565b005b3480156106ac57600080fd5b506106c760048036038101906106c29190613394565b611ec3565b6040516106d4919061413d565b60405180910390f35b3480156106e957600080fd5b5061070460048036038101906106ff91906133f9565b611f5a565b604051610711919061415f565b60405180910390f35b600061072582611fee565b9050919050565b60606000805461073b9061491d565b80601f01602080910402602001604051908101604052809291908181526020018280546107679061491d565b80156107b45780601f10610789576101008083540402835291602001916107b4565b820191906000526020600020905b81548152906001019060200180831161079757829003601f168201915b5050505050905090565b60006107c982612068565b610808576040517f08c379a00000000000000000000000000000000000000000000000000000000081526004016107ff906143dc565b60405180910390fd5b6004600083815260200190815260200160002060009054906101000a900473ffffffffffffffffffffffffffffffffffffffff169050919050565b600061084e82610bf1565b90508073ffffffffffffffffffffffffffffffffffffffff168373ffffffffffffffffffffffffffffffffffffffff1614156108bf576040517f08c379a00000000000000000000000000000000000000000000000000000000081526004016108b69061443c565b60405180910390fd5b8073ffffffffffffffffffffffffffffffffffffffff166108de6120d4565b73ffffffffffffffffffffffffffffffffffffffff16148061090d575061090c816109076120d4565b611f5a565b5b61094c576040517f08c379a0000000000000000000000000000000000000000000000000000000008152600401610943906142dc565b60405180910390fd5b61095683836120dc565b505050565b6000600c54905090565b6000600880549050905090565b61098361097d6120d4565b82612195565b6109c2576040517f08c379a00000000000000000000000000000000000000000000000000000000081526004016109b99061447c565b60405180910390fd5b6109cd838383612273565b505050565b60006109dd83610ca3565b8210610a1e576040517f08c379a0000000000000000000000000000000000000000000000000000000008152600401610a15906141dc565b60405180910390fd5b600660008473ffffffffffffffffffffffffffffffffffffffff1673ffffffffffffffffffffffffffffffffffffffff168152602001908152602001600020600083815260200190815260200160002054905092915050565b600d60009054906101000a900473ffffffffffffffffffffffffffffffffffffffff1673ffffffffffffffffffffffffffffffffffffffff163373ffffffffffffffffffffffffffffffffffffffff1614610ad157600080fd5b80600e60086101000a81548160ff02191690831515021790555050565b610b0983838360405180602001604052806000815250611479565b505050565b6000610b18610965565b8210610b59576040517f08c379a0000000000000000000000000000000000000000000000000000000008152600401610b509061449c565b60405180910390fd5b60088281548110610b93577f4e487b7100000000000000000000000000000000000000000000000000000000600052603260045260246000fd5b90600052602060002001549050919050565b6000601060008373ffffffffffffffffffffffffffffffffffffffff1673ffffffffffffffffffffffffffffffffffffffff168152602001908152602001600020805490509050919050565b6000806002600084815260200190815260200160002060009054906101000a900473ffffffffffffffffffffffffffffffffffffffff169050600073ffffffffffffffffffffffffffffffffffffffff168173ffffffffffffffffffffffffffffffffffffffff161415610c9a576040517f08c379a0000000000000000000000000000000000000000000000000000000008152600401610c919061433c565b60405180910390fd5b80915050919050565b60008073ffffffffffffffffffffffffffffffffffffffff168273ffffffffffffffffffffffffffffffffffffffff161415610d14576040517f08c379a0000000000000000000000000000000000000000000000000000000008152600401610d0b9061431c565b60405180910390fd5b600360008373ffffffffffffffffffffffffffffffffffffffff1673ffffffffffffffffffffffffffffffffffffffff168152602001908152602001600020549050919050565b6060601060008373ffffffffffffffffffffffffffffffffffffffff1673ffffffffffffffffffffffffffffffffffffffff168152602001908152602001600020805480602002602001604051908101604052809291908181526020016000905b828210156110a957838290600052602060002090600b02016040518061018001604052908160008201548152602001600182018054610dfa9061491d565b80601f0160208091040260200160405190810160405280929190818152602001828054610e269061491d565b8015610e735780601f10610e4857610100808354040283529160200191610e73565b820191906000526020600020905b815481529060010190602001808311610e5657829003601f168201915b50505050508152602001600282018054610e8c9061491d565b80601f0160208091040260200160405190810160405280929190818152602001828054610eb89061491d565b8015610f055780601f10610eda57610100808354040283529160200191610f05565b820191906000526020600020905b815481529060010190602001808311610ee857829003601f168201915b50505050508152602001600382018054610f1e9061491d565b80601f0160208091040260200160405190810160405280929190818152602001828054610f4a9061491d565b8015610f975780601f10610f6c57610100808354040283529160200191610f97565b820191906000526020600020905b815481529060010190602001808311610f7a57829003601f168201915b505050505081526020016004820154815260200160058201548152602001600682015481526020016007820154815260200160088201548152602001600982018054610fe29061491d565b80601f016020809104026020016040519081016040528092919081815260200182805461100e9061491d565b801561105b5780601f106110305761010080835404028352916020019161105b565b820191906000526020600020905b81548152906001019060200180831161103e57829003601f168201915b50505050508152602001600a820160009054906101000a900460ff16151515158152602001600a820160019054906101000a900460ff16151515158152505081526020019060010190610dbc565b505050509050919050565b6000601060003373ffffffffffffffffffffffffffffffffffffffff1673ffffffffffffffffffffffffffffffffffffffff168152602001908152602001600020805490501180156111535750600061110c33610d5b565b8381518110611144577f4e487b7100000000000000000000000000000000000000000000000000000000600052603260045260246000fd5b60200260200101516000015114155b611192576040517f08c379a00000000000000000000000000000000000000000000000000000000081526004016111899061437c565b60405180910390fd5b80601060003373ffffffffffffffffffffffffffffffffffffffff1673ffffffffffffffffffffffffffffffffffffffff168152602001908152602001600020838154811061120a577f4e487b7100000000000000000000000000000000000000000000000000000000600052603260045260246000fd5b90600052602060002090600b0201600a0160016101000a81548160ff0219169083151502179055505050565b6000600a54905090565b6112486130d6565b6000601060008573ffffffffffffffffffffffffffffffffffffffff1673ffffffffffffffffffffffffffffffffffffffff168152602001908152602001600020805490501180156112e7575060006112a084610d5b565b83815181106112d8577f4e487b7100000000000000000000000000000000000000000000000000000000600052603260045260246000fd5b60200260200101516000015114155b611326576040517f08c379a000000000000000000000000000000000000000000000000000000000815260040161131d9061437c565b60405180910390fd5b61132f83610d5b565b8281518110611367577f4e487b7100000000000000000000000000000000000000000000000000000000600052603260045260246000fd5b6020026020010151905092915050565b6060600180546113869061491d565b80601f01602080910402602001604051908101604052809291908181526020018280546113b29061491d565b80156113ff5780601f106113d4576101008083540402835291602001916113ff565b820191906000526020600020905b8154815290600101906020018083116113e257829003601f168201915b5050505050905090565b61141b6114146120d4565b83836124da565b5050565b6000612710600d60149054906101000a900467ffffffffffffffff1667ffffffffffffffff168360018661145391906147c7565b61145d91906147c7565b61146791906147c7565b6114719190614796565b905092915050565b61148a6114846120d4565b83612195565b6114c9576040517f08c379a00000000000000000000000000000000000000000000000000000000081526004016114c09061447c565b60405180910390fd5b6114d584848484612647565b50505050565b60006114e78383611240565b9050600081600001511415611531576040517f08c379a00000000000000000000000000000000000000000000000000000000081526004016115289061441c565b60405180910390fd5b80610140015161159c5761154a8160a00151600161141f565b8160a001516115599190614740565b34101561159b576040517f08c379a00000000000000000000000000000000000000000000000000000000081526004016115929061435c565b60405180910390fd5b5b806080015181610100015111156115e8576040517f08c379a00000000000000000000000000000000000000000000000000000000081526004016115df906142fc565b60405180910390fd5b428160c00151101561162f576040517f08c379a0000000000000000000000000000000000000000000000000000000008152600401611626906143fc565b60405180910390fd5b428160e001511015611676576040517f08c379a000000000000000000000000000000000000000000000000000000000815260040161166d9061429c565b60405180910390fd5b806101600151156116bc576040517f08c379a00000000000000000000000000000000000000000000000000000000081526004016116b3906141bc565b60405180910390fd5b600b60009054906101000a900460ff161561170c576040517f08c379a00000000000000000000000000000000000000000000000000000000081526004016117039061419c565b60405180910390fd5b6001600b60006101000a81548160ff02191690831515021790555060008373ffffffffffffffffffffffffffffffffffffffff1661174f8360a00151600161141f565b60018460a0015161176091906147c7565b61176a9190614821565b6040516117769061409f565b60006040518083038185875af1925050503d80600081146117b3576040519150601f19603f3d011682016040523d82523d6000602084013e6117b8565b606091505b50509050806117fc576040517f08c379a00000000000000000000000000000000000000000000000000000000081526004016117f39061445c565b60405180910390fd5b6000600b60006101000a81548160ff0219169083151502179055506118268260a00151600161141f565b600c60008282546118379190614740565b92505081905550600182610100018181516118529190614740565b915081815250506000611864336126a3565b9050836011600083815260200190815260200160002081905550601260003373ffffffffffffffffffffffffffffffffffffffff1673ffffffffffffffffffffffffffffffffffffffff1681526020019081526020016000208190806001815401808255809150506001900390600052602060002001600090919091909150555050505050565b3373ffffffffffffffffffffffffffffffffffffffff16600d60009054906101000a900473ffffffffffffffffffffffffffffffffffffffff1673ffffffffffffffffffffffffffffffffffffffff161461194557600080fd5b6000600d60009054906101000a900473ffffffffffffffffffffffffffffffffffffffff1673ffffffffffffffffffffffffffffffffffffffff16600c5460405161198f9061409f565b60006040518083038185875af1925050503d80600081146119cc576040519150601f19603f3d011682016040523d82523d6000602084013e6119d1565b606091505b5050905080611a15576040517f08c379a0000000000000000000000000000000000000000000000000000000008152600401611a0c9061445c565b60405180910390fd5b6000600c8190555050565b60606000611a2d83610bf1565b90506000601160008581526020019081526020016000205490506000600f600083815260200190815260200160002060009054906101000a900473ffffffffffffffffffffffffffffffffffffffff1690506000611a8b8284611240565b905073__$a20982e1bcb8b3af421c9167f5f8e940cd$__62b730b66040518060a001604052808460200151815260200184604001518152602001846060015181526020018773ffffffffffffffffffffffffffffffffffffffff168152602001898152506040518263ffffffff1660e01b8152600401611b0b91906144de565b60006040518083038186803b158015611b2357600080fd5b505af4158015611b37573d6000803e3d6000fd5b505050506040513d6000823e3d601f19601f82011682018060405250810190611b6091906135f2565b945050505050919050565b600082611b8157611b7c878961141f565b611ba3565b600e60009054906101000a900467ffffffffffffffff1667ffffffffffffffff165b905060008811611be8576040517f08c379a0000000000000000000000000000000000000000000000000000000008152600401611bdf9061439c565b60405180910390fd5b80341015611c2b576040517f08c379a0000000000000000000000000000000000000000000000000000000008152600401611c229061435c565b60405180910390fd5b600160136000828254611c3e9190614740565b9250508190555080600c6000828254611c579190614740565b9250508190555033600f6000601354815260200190815260200160002060006101000a81548173ffffffffffffffffffffffffffffffffffffffff021916908373ffffffffffffffffffffffffffffffffffffffff160217905550601060003373ffffffffffffffffffffffffffffffffffffffff1673ffffffffffffffffffffffffffffffffffffffff16815260200190815260200160002060405180610180016040528060135481526020018d81526020018c81526020018b81526020018a815260200189815260200188815260200187815260200160008152602001868152602001851515815260200184151581525090806001815401808255809150506001900390600052602060002090600b0201600090919091909150600082015181600001556020820151816001019080519060200190611d9992919061313b565b506040820151816002019080519060200190611db692919061313b565b506060820151816003019080519060200190611dd392919061313b565b506080820151816004015560a0820151816005015560c0820151816006015560e082015181600701556101008201518160080155610120820151816009019080519060200190611e2492919061313b565b5061014082015181600a0160006101000a81548160ff02191690831515021790555061016082015181600a0160016101000a81548160ff02191690831515021790555050507f1eaebadfba6c0e9b06f925ccb172a75b6d241645916f156f1596fd95ee1b65876013548c8c8c8c8c8c8c8c8c8c604051611eae9b9a9998979695949392919061451b565b60405180910390a15050505050505050505050565b6060601260008373ffffffffffffffffffffffffffffffffffffffff1673ffffffffffffffffffffffffffffffffffffffff168152602001908152602001600020805480602002602001604051908101604052809291908181526020018280548015611f4e57602002820191906000526020600020905b815481526020019060010190808311611f3a575b50505050509050919050565b6000600560008473ffffffffffffffffffffffffffffffffffffffff1673ffffffffffffffffffffffffffffffffffffffff16815260200190815260200160002060008373ffffffffffffffffffffffffffffffffffffffff1673ffffffffffffffffffffffffffffffffffffffff16815260200190815260200160002060009054906101000a900460ff16905092915050565b60007f780e9d63000000000000000000000000000000000000000000000000000000007bffffffffffffffffffffffffffffffffffffffffffffffffffffffff1916827bffffffffffffffffffffffffffffffffffffffffffffffffffffffff191614806120615750612060826126d7565b5b9050919050565b60008073ffffffffffffffffffffffffffffffffffffffff166002600084815260200190815260200160002060009054906101000a900473ffffffffffffffffffffffffffffffffffffffff1673ffffffffffffffffffffffffffffffffffffffff1614159050919050565b600033905090565b816004600083815260200190815260200160002060006101000a81548173ffffffffffffffffffffffffffffffffffffffff021916908373ffffffffffffffffffffffffffffffffffffffff160217905550808273ffffffffffffffffffffffffffffffffffffffff1661214f83610bf1565b73ffffffffffffffffffffffffffffffffffffffff167f8c5be1e5ebec7d5bd14f71427d1e84f3dd0314c0f7b2291e5b200ac8c7c3b92560405160405180910390a45050565b60006121a082612068565b6121df576040517f08c379a00000000000000000000000000000000000000000000000000000000081526004016121d6906142bc565b60405180910390fd5b60006121ea83610bf1565b90508073ffffffffffffffffffffffffffffffffffffffff168473ffffffffffffffffffffffffffffffffffffffff16148061222c575061222b8185611f5a565b5b8061226a57508373ffffffffffffffffffffffffffffffffffffffff16612252846107be565b73ffffffffffffffffffffffffffffffffffffffff16145b91505092915050565b8273ffffffffffffffffffffffffffffffffffffffff1661229382610bf1565b73ffffffffffffffffffffffffffffffffffffffff16146122e9576040517f08c379a00000000000000000000000000000000000000000000000000000000081526004016122e09061421c565b60405180910390fd5b600073ffffffffffffffffffffffffffffffffffffffff168273ffffffffffffffffffffffffffffffffffffffff161415612359576040517f08c379a00000000000000000000000000000000000000000000000000000000081526004016123509061425c565b60405180910390fd5b6123648383836127b9565b61236f6000826120dc565b6001600360008573ffffffffffffffffffffffffffffffffffffffff1673ffffffffffffffffffffffffffffffffffffffff16815260200190815260200160002060008282546123bf9190614821565b925050819055506001600360008473ffffffffffffffffffffffffffffffffffffffff1673ffffffffffffffffffffffffffffffffffffffff16815260200190815260200160002060008282546124169190614740565b92505081905550816002600083815260200190815260200160002060006101000a81548173ffffffffffffffffffffffffffffffffffffffff021916908373ffffffffffffffffffffffffffffffffffffffff160217905550808273ffffffffffffffffffffffffffffffffffffffff168473ffffffffffffffffffffffffffffffffffffffff167fddf252ad1be2c89b69c2b068fc378daa952ba7f163c4a11628f55a4df523b3ef60405160405180910390a46124d58383836127c9565b505050565b8173ffffffffffffffffffffffffffffffffffffffff168373ffffffffffffffffffffffffffffffffffffffff161415612549576040517f08c379a00000000000000000000000000000000000000000000000000000000081526004016125409061427c565b60405180910390fd5b80600560008573ffffffffffffffffffffffffffffffffffffffff1673ffffffffffffffffffffffffffffffffffffffff16815260200190815260200160002060008473ffffffffffffffffffffffffffffffffffffffff1673ffffffffffffffffffffffffffffffffffffffff16815260200190815260200160002060006101000a81548160ff0219169083151502179055508173ffffffffffffffffffffffffffffffffffffffff168373ffffffffffffffffffffffffffffffffffffffff167f17307eab39ab6107e8899845ad3d59bd9653f200f220920489ca2b5937696c318360405161263a919061415f565b60405180910390a3505050565b612652848484612273565b61265e848484846127ce565b61269d576040517f08c379a0000000000000000000000000000000000000000000000000000000008152600401612694906141fc565b60405180910390fd5b50505050565b6000600a60008154809291906126b890614980565b91905055506000600a5490506126ce8382612965565b80915050919050565b60007f80ac58cd000000000000000000000000000000000000000000000000000000007bffffffffffffffffffffffffffffffffffffffffffffffffffffffff1916827bffffffffffffffffffffffffffffffffffffffffffffffffffffffff191614806127a257507f5b5e139f000000000000000000000000000000000000000000000000000000007bffffffffffffffffffffffffffffffffffffffffffffffffffffffff1916827bffffffffffffffffffffffffffffffffffffffffffffffffffffffff1916145b806127b257506127b182612983565b5b9050919050565b6127c48383836129ed565b505050565b505050565b60006127ef8473ffffffffffffffffffffffffffffffffffffffff16612b01565b15612958578373ffffffffffffffffffffffffffffffffffffffff1663150b7a026128186120d4565b8786866040518563ffffffff1660e01b815260040161283a94939291906140cf565b602060405180830381600087803b15801561285457600080fd5b505af192505050801561288557506040513d601f19601f8201168201806040525081019061288291906135c9565b60015b612908573d80600081146128b5576040519150601f19603f3d011682016040523d82523d6000602084013e6128ba565b606091505b50600081511415612900576040517f08c379a00000000000000000000000000000000000000000000000000000000081526004016128f7906141fc565b60405180910390fd5b805181602001fd5b63150b7a0260e01b7bffffffffffffffffffffffffffffffffffffffffffffffffffffffff1916817bffffffffffffffffffffffffffffffffffffffffffffffffffffffff19161491505061295d565b600190505b949350505050565b61297f828260405180602001604052806000815250612b24565b5050565b60007f01ffc9a7000000000000000000000000000000000000000000000000000000007bffffffffffffffffffffffffffffffffffffffffffffffffffffffff1916827bffffffffffffffffffffffffffffffffffffffffffffffffffffffff1916149050919050565b6129f8838383612b7f565b600073ffffffffffffffffffffffffffffffffffffffff168373ffffffffffffffffffffffffffffffffffffffff161415612a3b57612a3681612b84565b612a7a565b8173ffffffffffffffffffffffffffffffffffffffff168373ffffffffffffffffffffffffffffffffffffffff1614612a7957612a788382612bcd565b5b5b600073ffffffffffffffffffffffffffffffffffffffff168273ffffffffffffffffffffffffffffffffffffffff161415612abd57612ab881612d3a565b612afc565b8273ffffffffffffffffffffffffffffffffffffffff168273ffffffffffffffffffffffffffffffffffffffff1614612afb57612afa8282612e7d565b5b5b505050565b6000808273ffffffffffffffffffffffffffffffffffffffff163b119050919050565b612b2e8383612efc565b612b3b60008484846127ce565b612b7a576040517f08c379a0000000000000000000000000000000000000000000000000000000008152600401612b71906141fc565b60405180910390fd5b505050565b505050565b6008805490506009600083815260200190815260200160002081905550600881908060018154018082558091505060019003906000526020600020016000909190919091505550565b60006001612bda84610ca3565b612be49190614821565b9050600060076000848152602001908152602001600020549050818114612cc9576000600660008673ffffffffffffffffffffffffffffffffffffffff1673ffffffffffffffffffffffffffffffffffffffff168152602001908152602001600020600084815260200190815260200160002054905080600660008773ffffffffffffffffffffffffffffffffffffffff1673ffffffffffffffffffffffffffffffffffffffff168152602001908152602001600020600084815260200190815260200160002081905550816007600083815260200190815260200160002081905550505b6007600084815260200190815260200160002060009055600660008573ffffffffffffffffffffffffffffffffffffffff1673ffffffffffffffffffffffffffffffffffffffff16815260200190815260200160002060008381526020019081526020016000206000905550505050565b60006001600880549050612d4e9190614821565b9050600060096000848152602001908152602001600020549050600060088381548110612da4577f4e487b7100000000000000000000000000000000000000000000000000000000600052603260045260246000fd5b906000526020600020015490508060088381548110612dec577f4e487b7100000000000000000000000000000000000000000000000000000000600052603260045260246000fd5b906000526020600020018190555081600960008381526020019081526020016000208190555060096000858152602001908152602001600020600090556008805480612e61577f4e487b7100000000000000000000000000000000000000000000000000000000600052603160045260246000fd5b6001900381819060005260206000200160009055905550505050565b6000612e8883610ca3565b905081600660008573ffffffffffffffffffffffffffffffffffffffff1673ffffffffffffffffffffffffffffffffffffffff168152602001908152602001600020600083815260200190815260200160002081905550806007600084815260200190815260200160002081905550505050565b600073ffffffffffffffffffffffffffffffffffffffff168273ffffffffffffffffffffffffffffffffffffffff161415612f6c576040517f08c379a0000000000000000000000000000000000000000000000000000000008152600401612f63906143bc565b60405180910390fd5b612f7581612068565b15612fb5576040517f08c379a0000000000000000000000000000000000000000000000000000000008152600401612fac9061423c565b60405180910390fd5b612fc1600083836127b9565b6001600360008473ffffffffffffffffffffffffffffffffffffffff1673ffffffffffffffffffffffffffffffffffffffff16815260200190815260200160002060008282546130119190614740565b92505081905550816002600083815260200190815260200160002060006101000a81548173ffffffffffffffffffffffffffffffffffffffff021916908373ffffffffffffffffffffffffffffffffffffffff160217905550808273ffffffffffffffffffffffffffffffffffffffff16600073ffffffffffffffffffffffffffffffffffffffff167fddf252ad1be2c89b69c2b068fc378daa952ba7f163c4a11628f55a4df523b3ef60405160405180910390a46130d2600083836127c9565b5050565b604051806101800160405280600081526020016060815260200160608152602001606081526020016000815260200160008152602001600081526020016000815260200160008152602001606081526020016000151581526020016000151581525090565b8280546131479061491d565b90600052602060002090601f01602090048101928261316957600085556131b0565b82601f1061318257805160ff19168380011785556131b0565b828001600101855582156131b0579182015b828111156131af578251825591602001919060010190613194565b5b5090506131bd91906131c1565b5090565b5b808211156131da5760008160009055506001016131c2565b5090565b60006131f16131ec84614607565b6145e2565b90508281526020810184848401111561320957600080fd5b6132148482856148db565b509392505050565b600061322f61322a84614638565b6145e2565b90508281526020810184848401111561324757600080fd5b6132528482856148db565b509392505050565b600061326d61326884614638565b6145e2565b90508281526020810184848401111561328557600080fd5b6132908482856148ea565b509392505050565b6000813590506132a781615088565b92915050565b6000813590506132bc8161509f565b92915050565b6000813590506132d1816150b6565b92915050565b6000813590506132e6816150cd565b92915050565b6000815190506132fb816150cd565b92915050565b600082601f83011261331257600080fd5b81356133228482602086016131de565b91505092915050565b600082601f83011261333c57600080fd5b813561334c84826020860161321c565b91505092915050565b600082601f83011261336657600080fd5b815161337684826020860161325a565b91505092915050565b60008135905061338e816150e4565b92915050565b6000602082840312156133a657600080fd5b60006133b484828501613298565b91505092915050565b600080604083850312156133d057600080fd5b60006133de858286016132ad565b92505060206133ef8582860161337f565b9150509250929050565b6000806040838503121561340c57600080fd5b600061341a85828601613298565b925050602061342b85828601613298565b9150509250929050565b60008060006060848603121561344a57600080fd5b600061345886828701613298565b935050602061346986828701613298565b925050604061347a8682870161337f565b9150509250925092565b6000806000806080858703121561349a57600080fd5b60006134a887828801613298565b94505060206134b987828801613298565b93505060406134ca8782880161337f565b925050606085013567ffffffffffffffff8111156134e757600080fd5b6134f387828801613301565b91505092959194509250565b6000806040838503121561351257600080fd5b600061352085828601613298565b9250506020613531858286016132c2565b9150509250929050565b6000806040838503121561354e57600080fd5b600061355c85828601613298565b925050602061356d8582860161337f565b9150509250929050565b60006020828403121561358957600080fd5b6000613597848285016132c2565b91505092915050565b6000602082840312156135b257600080fd5b60006135c0848285016132d7565b91505092915050565b6000602082840312156135db57600080fd5b60006135e9848285016132ec565b91505092915050565b60006020828403121561360457600080fd5b600082015167ffffffffffffffff81111561361e57600080fd5b61362a84828501613355565b91505092915050565b6000806000806000806000806000806101408b8d03121561365357600080fd5b60008b013567ffffffffffffffff81111561366d57600080fd5b6136798d828e0161332b565b9a505060208b013567ffffffffffffffff81111561369657600080fd5b6136a28d828e0161332b565b99505060408b013567ffffffffffffffff8111156136bf57600080fd5b6136cb8d828e0161332b565b98505060606136dc8d828e0161337f565b97505060806136ed8d828e0161337f565b96505060a06136fe8d828e0161337f565b95505060c061370f8d828e0161337f565b94505060e08b013567ffffffffffffffff81111561372c57600080fd5b6137388d828e0161332b565b93505061010061374a8d828e016132c2565b92505061012061375c8d828e016132c2565b9150509295989b9194979a5092959850565b60006020828403121561378057600080fd5b600061378e8482850161337f565b91505092915050565b600080604083850312156137aa57600080fd5b60006137b88582860161337f565b92505060206137c9858286016132c2565b9150509250929050565b600080604083850312156137e657600080fd5b60006137f48582860161337f565b92505060206138058582860161337f565b9150509250929050565b600061381b8383613dbc565b905092915050565b600061382f8383614072565b60208301905092915050565b61384481614855565b82525050565b61385381614855565b82525050565b600061386482614689565b61386e81856146cf565b93508360208202850161388085614669565b8060005b858110156138bc578484038952815161389d858261380f565b94506138a8836146b5565b925060208a01995050600181019050613884565b50829750879550505050505092915050565b60006138d982614694565b6138e381856146e0565b93506138ee83614679565b8060005b8381101561391f5781516139068882613823565b9750613911836146c2565b9250506001810190506138f2565b5085935050505092915050565b61393581614879565b82525050565b61394481614879565b82525050565b60006139558261469f565b61395f81856146f1565b935061396f8185602086016148ea565b61397881614a85565b840191505092915050565b600061398e826146aa565b613998818561470d565b93506139a88185602086016148ea565b6139b181614a85565b840191505092915050565b60006139c7826146aa565b6139d1818561471e565b93506139e18185602086016148ea565b6139ea81614a85565b840191505092915050565b6000613a00826146aa565b613a0a818561472f565b9350613a1a8185602086016148ea565b613a2381614a85565b840191505092915050565b6000613a3b60188361471e565b9150613a4682614a96565b602082019050919050565b6000613a5e600f8361471e565b9150613a6982614abf565b602082019050919050565b6000613a81602b8361471e565b9150613a8c82614ae8565b604082019050919050565b6000613aa460328361471e565b9150613aaf82614b37565b604082019050919050565b6000613ac760258361471e565b9150613ad282614b86565b604082019050919050565b6000613aea601c8361471e565b9150613af582614bd5565b602082019050919050565b6000613b0d60248361471e565b9150613b1882614bfe565b604082019050919050565b6000613b3060198361471e565b9150613b3b82614c4d565b602082019050919050565b6000613b53600c8361471e565b9150613b5e82614c76565b602082019050919050565b6000613b76602c8361471e565b9150613b8182614c9f565b604082019050919050565b6000613b9960388361471e565b9150613ba482614cee565b604082019050919050565b6000613bbc60078361471e565b9150613bc782614d3d565b602082019050919050565b6000613bdf602a8361471e565b9150613bea82614d66565b604082019050919050565b6000613c0260298361471e565b9150613c0d82614db5565b604082019050919050565b6000613c25600a8361471e565b9150613c3082614e04565b602082019050919050565b6000613c4860138361471e565b9150613c5382614e2d565b602082019050919050565b6000613c6b60238361471e565b9150613c7682614e56565b604082019050919050565b6000613c8e60208361471e565b9150613c9982614ea5565b602082019050919050565b6000613cb1602c8361471e565b9150613cbc82614ece565b604082019050919050565b6000613cd460118361471e565b9150613cdf82614f1d565b602082019050919050565b6000613cf7600f8361471e565b9150613d0282614f46565b602082019050919050565b6000613d1a60218361471e565b9150613d2582614f6f565b604082019050919050565b6000613d3d600083614702565b9150613d4882614fbe565b600082019050919050565b6000613d6060108361471e565b9150613d6b82614fc1565b602082019050919050565b6000613d8360318361471e565b9150613d8e82614fea565b604082019050919050565b6000613da6602c8361471e565b9150613db182615039565b604082019050919050565b600061018083016000830151613dd56000860182614072565b5060208301518482036020860152613ded8282613983565b91505060408301518482036040860152613e078282613983565b91505060608301518482036060860152613e218282613983565b9150506080830151613e366080860182614072565b5060a0830151613e4960a0860182614072565b5060c0830151613e5c60c0860182614072565b5060e0830151613e6f60e0860182614072565b50610100830151613e84610100860182614072565b50610120830151848203610120860152613e9e8282613983565b915050610140830151613eb561014086018261392c565b50610160830151613eca61016086018261392c565b508091505092915050565b600061018083016000830151613eee6000860182614072565b5060208301518482036020860152613f068282613983565b91505060408301518482036040860152613f208282613983565b91505060608301518482036060860152613f3a8282613983565b9150506080830151613f4f6080860182614072565b5060a0830151613f6260a0860182614072565b5060c0830151613f7560c0860182614072565b5060e0830151613f8860e0860182614072565b50610100830151613f9d610100860182614072565b50610120830151848203610120860152613fb78282613983565b915050610140830151613fce61014086018261392c565b50610160830151613fe361016086018261392c565b508091505092915050565b600060a083016000830151848203600086015261400b82826139f5565b9150506020830151848203602086015261402582826139f5565b9150506040830151848203604086015261403f82826139f5565b9150506060830151614054606086018261384a565b5060808301516140676080860182614090565b508091505092915050565b61407b816148d1565b82525050565b61408a816148d1565b82525050565b614099816148d1565b82525050565b60006140aa82613d30565b9150819050919050565b60006020820190506140c9600083018461383b565b92915050565b60006080820190506140e4600083018761383b565b6140f1602083018661383b565b6140fe6040830185614081565b8181036060830152614110818461394a565b905095945050505050565b600060208201905081810360008301526141358184613859565b905092915050565b6000602082019050818103600083015261415781846138ce565b905092915050565b6000602082019050614174600083018461393b565b92915050565b6000602082019050818103600083015261419481846139bc565b905092915050565b600060208201905081810360008301526141b581613a2e565b9050919050565b600060208201905081810360008301526141d581613a51565b9050919050565b600060208201905081810360008301526141f581613a74565b9050919050565b6000602082019050818103600083015261421581613a97565b9050919050565b6000602082019050818103600083015261423581613aba565b9050919050565b6000602082019050818103600083015261425581613add565b9050919050565b6000602082019050818103600083015261427581613b00565b9050919050565b6000602082019050818103600083015261429581613b23565b9050919050565b600060208201905081810360008301526142b581613b46565b9050919050565b600060208201905081810360008301526142d581613b69565b9050919050565b600060208201905081810360008301526142f581613b8c565b9050919050565b6000602082019050818103600083015261431581613baf565b9050919050565b6000602082019050818103600083015261433581613bd2565b9050919050565b6000602082019050818103600083015261435581613bf5565b9050919050565b6000602082019050818103600083015261437581613c18565b9050919050565b6000602082019050818103600083015261439581613c3b565b9050919050565b600060208201905081810360008301526143b581613c5e565b9050919050565b600060208201905081810360008301526143d581613c81565b9050919050565b600060208201905081810360008301526143f581613ca4565b9050919050565b6000602082019050818103600083015261441581613cc7565b9050919050565b6000602082019050818103600083015261443581613cea565b9050919050565b6000602082019050818103600083015261445581613d0d565b9050919050565b6000602082019050818103600083015261447581613d53565b9050919050565b6000602082019050818103600083015261449581613d76565b9050919050565b600060208201905081810360008301526144b581613d99565b9050919050565b600060208201905081810360008301526144d68184613ed5565b905092915050565b600060208201905081810360008301526144f88184613fee565b905092915050565b60006020820190506145156000830184614081565b92915050565b600061016082019050614531600083018e614081565b8181036020830152614543818d6139bc565b90508181036040830152614557818c6139bc565b9050818103606083015261456b818b6139bc565b905061457a608083018a614081565b61458760a0830189614081565b61459460c0830188614081565b6145a160e0830187614081565b8181036101008301526145b481866139bc565b90506145c461012083018561393b565b6145d261014083018461393b565b9c9b505050505050505050505050565b60006145ec6145fd565b90506145f8828261494f565b919050565b6000604051905090565b600067ffffffffffffffff82111561462257614621614a56565b5b61462b82614a85565b9050602081019050919050565b600067ffffffffffffffff82111561465357614652614a56565b5b61465c82614a85565b9050602081019050919050565b6000819050602082019050919050565b6000819050602082019050919050565b600081519050919050565b600081519050919050565b600081519050919050565b600081519050919050565b6000602082019050919050565b6000602082019050919050565b600082825260208201905092915050565b600082825260208201905092915050565b600082825260208201905092915050565b600081905092915050565b600082825260208201905092915050565b600082825260208201905092915050565b600082825260208201905092915050565b600061474b826148d1565b9150614756836148d1565b9250827fffffffffffffffffffffffffffffffffffffffffffffffffffffffffffffffff0382111561478b5761478a6149c9565b5b828201905092915050565b60006147a1826148d1565b91506147ac836148d1565b9250826147bc576147bb6149f8565b5b828204905092915050565b60006147d2826148d1565b91506147dd836148d1565b9250817fffffffffffffffffffffffffffffffffffffffffffffffffffffffffffffffff0483118215151615614816576148156149c9565b5b828202905092915050565b600061482c826148d1565b9150614837836148d1565b92508282101561484a576148496149c9565b5b828203905092915050565b6000614860826148b1565b9050919050565b6000614872826148b1565b9050919050565b60008115159050919050565b60007fffffffff0000000000000000000000000000000000000000000000000000000082169050919050565b600073ffffffffffffffffffffffffffffffffffffffff82169050919050565b6000819050919050565b82818337600083830152505050565b60005b838110156149085780820151818401526020810190506148ed565b83811115614917576000848401525b50505050565b6000600282049050600182168061493557607f821691505b6020821081141561494957614948614a27565b5b50919050565b61495882614a85565b810181811067ffffffffffffffff8211171561497757614976614a56565b5b80604052505050565b600061498b826148d1565b91507fffffffffffffffffffffffffffffffffffffffffffffffffffffffffffffffff8214156149be576149bd6149c9565b5b600182019050919050565b7f4e487b7100000000000000000000000000000000000000000000000000000000600052601160045260246000fd5b7f4e487b7100000000000000000000000000000000000000000000000000000000600052601260045260246000fd5b7f4e487b7100000000000000000000000000000000000000000000000000000000600052602260045260246000fd5b7f4e487b7100000000000000000000000000000000000000000000000000000000600052604160045260246000fd5b6000601f19601f8301169050919050565b7f5265656e7472616e742063616c6c206465746563746564210000000000000000600082015250565b7f4576656e74206973207061757365640000000000000000000000000000000000600082015250565b7f455243373231456e756d657261626c653a206f776e657220696e646578206f7560008201527f74206f6620626f756e6473000000000000000000000000000000000000000000602082015250565b7f4552433732313a207472616e7366657220746f206e6f6e20455243373231526560008201527f63656976657220696d706c656d656e7465720000000000000000000000000000602082015250565b7f4552433732313a207472616e736665722066726f6d20696e636f72726563742060008201527f6f776e6572000000000000000000000000000000000000000000000000000000602082015250565b7f4552433732313a20746f6b656e20616c7265616479206d696e74656400000000600082015250565b7f4552433732313a207472616e7366657220746f20746865207a65726f2061646460008201527f7265737300000000000000000000000000000000000000000000000000000000602082015250565b7f4552433732313a20617070726f766520746f2063616c6c657200000000000000600082015250565b7f4576656e7420697320656e640000000000000000000000000000000000000000600082015250565b7f4552433732313a206f70657261746f7220717565727920666f72206e6f6e657860008201527f697374656e7420746f6b656e0000000000000000000000000000000000000000602082015250565b7f4552433732313a20617070726f76652063616c6c6572206973206e6f74206f7760008201527f6e6572206e6f7220617070726f76656420666f7220616c6c0000000000000000602082015250565b7f536f6c646f757400000000000000000000000000000000000000000000000000600082015250565b7f4552433732313a2062616c616e636520717565727920666f7220746865207a6560008201527f726f206164647265737300000000000000000000000000000000000000000000602082015250565b7f4552433732313a206f776e657220717565727920666f72206e6f6e657869737460008201527f656e7420746f6b656e0000000000000000000000000000000000000000000000602082015250565b7f4e6f7420666f756e647300000000000000000000000000000000000000000000600082015250565b7f4f776e657220686173206e6f206576656e747300000000000000000000000000600082015250565b7f63616e74546f6b656e4d6178206d75737420626520677265617465722074686160008201527f6e20300000000000000000000000000000000000000000000000000000000000602082015250565b7f4552433732313a206d696e7420746f20746865207a65726f2061646472657373600082015250565b7f4552433732313a20617070726f76656420717565727920666f72206e6f6e657860008201527f697374656e7420746f6b656e0000000000000000000000000000000000000000602082015250565b7f4576656e742073656c6c20697320656e64000000000000000000000000000000600082015250565b7f4576656e74206e6f742065786973740000000000000000000000000000000000600082015250565b7f4552433732313a20617070726f76616c20746f2063757272656e74206f776e6560008201527f7200000000000000000000000000000000000000000000000000000000000000602082015250565b50565b7f5472616e73666572206661696c65642e00000000000000000000000000000000600082015250565b7f4552433732313a207472616e736665722063616c6c6572206973206e6f74206f60008201527f776e6572206e6f7220617070726f766564000000000000000000000000000000602082015250565b7f455243373231456e756d657261626c653a20676c6f62616c20696e646578206f60008201527f7574206f6620626f756e64730000000000000000000000000000000000000000602082015250565b61509181614855565b811461509c57600080fd5b50565b6150a881614867565b81146150b357600080fd5b50565b6150bf81614879565b81146150ca57600080fd5b50565b6150d681614885565b81146150e157600080fd5b50565b6150ed816148d1565b81146150f857600080fd5b5056fea264697066735822122035664a52a0e57e62612c50b165905b55d29f9f2926e4ef859a26bc57281c805d64736f6c63430008040033",
  "linkReferences": {
    "contracts/GenTiketURI.sol": {
      "GenTiketURI": [
        {
          "length": 20,
          "start": 7666
        }
      ]
    }
  },
  "deployedLinkReferences": {
    "contracts/GenTiketURI.sol": {
      "GenTiketURI": [
        {
          "length": 20,
          "start": 6799
        }
      ]
    }
  }
}