{
  "_format": "hh-sol-artifact-1",
  "contractName": "Events",
  "sourceName": "contracts/Events.sol",
  "abi": [
    {
      "inputs": [
        {
          "internalType": "address payable",
          "name": "_owner",
          "type": "address"
        }
      ],
      "stateMutability": "nonpayable",
      "type": "constructor"
    },
    {
      "anonymous": false,
      "inputs": [
        {
          "indexed": true,
          "internalType": "address",
          "name": "owner",
          "type": "address"
        },
        {
          "indexed": true,
          "internalType": "address",
          "name": "approved",
          "type": "address"
        },
        {
          "indexed": true,
          "internalType": "uint256",
          "name": "tokenId",
          "type": "uint256"
        }
      ],
      "name": "Approval",
      "type": "event"
    },
    {
      "anonymous": false,
      "inputs": [
        {
          "indexed": true,
          "internalType": "address",
          "name": "owner",
          "type": "address"
        },
        {
          "indexed": true,
          "internalType": "address",
          "name": "operator",
          "type": "address"
        },
        {
          "indexed": false,
          "internalType": "bool",
          "name": "approved",
          "type": "bool"
        }
      ],
      "name": "ApprovalForAll",
      "type": "event"
    },
    {
      "anonymous": false,
      "inputs": [
        {
          "indexed": false,
          "internalType": "uint256",
          "name": "id",
          "type": "uint256"
        },
        {
          "indexed": false,
          "internalType": "string",
          "name": "name",
          "type": "string"
        },
        {
          "indexed": false,
          "internalType": "string",
          "name": "line2",
          "type": "string"
        },
        {
          "indexed": false,
          "internalType": "string",
          "name": "dateStr",
          "type": "string"
        },
        {
          "indexed": false,
          "internalType": "uint256",
          "name": "cantTicketsMax",
          "type": "uint256"
        },
        {
          "indexed": false,
          "internalType": "uint256",
          "name": "price",
          "type": "uint256"
        },
        {
          "indexed": false,
          "internalType": "uint256",
          "name": "dateOff",
          "type": "uint256"
        },
        {
          "indexed": false,
          "internalType": "uint256",
          "name": "dateEvent",
          "type": "uint256"
        },
        {
          "indexed": false,
          "internalType": "string",
          "name": "urlImg",
          "type": "string"
        },
        {
          "indexed": false,
          "internalType": "bool",
          "name": "freeEvent",
          "type": "bool"
        },
        {
          "indexed": false,
          "internalType": "bool",
          "name": "paused",
          "type": "bool"
        }
      ],
      "name": "NewEvent",
      "type": "event"
    },
    {
      "anonymous": false,
      "inputs": [
        {
          "indexed": false,
          "internalType": "uint256",
          "name": "idEvt",
          "type": "uint256"
        },
        {
          "indexed": false,
          "internalType": "address",
          "name": "owner",
          "type": "address"
        },
        {
          "indexed": false,
          "internalType": "uint256",
          "name": "idTicket",
          "type": "uint256"
        }
      ],
      "name": "NewTicket",
      "type": "event"
    },
    {
      "anonymous": false,
      "inputs": [
        {
          "indexed": true,
          "internalType": "address",
          "name": "from",
          "type": "address"
        },
        {
          "indexed": true,
          "internalType": "address",
          "name": "to",
          "type": "address"
        },
        {
          "indexed": true,
          "internalType": "uint256",
          "name": "tokenId",
          "type": "uint256"
        }
      ],
      "name": "Transfer",
      "type": "event"
    },
    {
      "inputs": [
        {
          "internalType": "string",
          "name": "_name",
          "type": "string"
        },
        {
          "internalType": "string",
          "name": "_line2",
          "type": "string"
        },
        {
          "internalType": "string",
          "name": "_dateStr",
          "type": "string"
        },
        {
          "internalType": "uint256",
          "name": "_cantTicketsMax",
          "type": "uint256"
        },
        {
          "internalType": "uint256",
          "name": "_price",
          "type": "uint256"
        },
        {
          "internalType": "uint256",
          "name": "_dateOff",
          "type": "uint256"
        },
        {
          "internalType": "uint256",
          "name": "_dateEvent",
          "type": "uint256"
        },
        {
          "internalType": "string",
          "name": "_urlImg",
          "type": "string"
        },
        {
          "internalType": "bool",
          "name": "_freeEvent",
          "type": "bool"
        },
        {
          "internalType": "bool",
          "name": "_paused",
          "type": "bool"
        }
      ],
      "name": "addEvent",
      "outputs": [],
      "stateMutability": "payable",
      "type": "function"
    },
    {
      "inputs": [
        {
          "internalType": "address",
          "name": "to",
          "type": "address"
        },
        {
          "internalType": "uint256",
          "name": "tokenId",
          "type": "uint256"
        }
      ],
      "name": "approve",
      "outputs": [],
      "stateMutability": "nonpayable",
      "type": "function"
    },
    {
      "inputs": [
        {
          "internalType": "address",
          "name": "owner",
          "type": "address"
        }
      ],
      "name": "balanceOf",
      "outputs": [
        {
          "internalType": "uint256",
          "name": "",
          "type": "uint256"
        }
      ],
      "stateMutability": "view",
      "type": "function"
    },
    {
      "inputs": [
        {
          "internalType": "uint256",
          "name": "_price",
          "type": "uint256"
        },
        {
          "internalType": "uint256",
          "name": "_cantTicketsMax",
          "type": "uint256"
        }
      ],
      "name": "calcFee",
      "outputs": [
        {
          "internalType": "uint256",
          "name": "",
          "type": "uint256"
        }
      ],
      "stateMutability": "view",
      "type": "function"
    },
    {
      "inputs": [
        {
          "internalType": "address",
          "name": "ownerEvent",
          "type": "address"
        }
      ],
      "name": "countEvent",
      "outputs": [
        {
          "internalType": "uint256",
          "name": "",
          "type": "uint256"
        }
      ],
      "stateMutability": "view",
      "type": "function"
    },
    {
      "inputs": [
        {
          "internalType": "uint256",
          "name": "tokenId",
          "type": "uint256"
        }
      ],
      "name": "getApproved",
      "outputs": [
        {
          "internalType": "address",
          "name": "",
          "type": "address"
        }
      ],
      "stateMutability": "view",
      "type": "function"
    },
    {
      "inputs": [
        {
          "internalType": "address",
          "name": "_owner",
          "type": "address"
        }
      ],
      "name": "getByOwnerIdTickets",
      "outputs": [
        {
          "internalType": "uint256[]",
          "name": "",
          "type": "uint256[]"
        }
      ],
      "stateMutability": "view",
      "type": "function"
    },
    {
      "inputs": [],
      "name": "getCounter",
      "outputs": [
        {
          "internalType": "uint256",
          "name": "",
          "type": "uint256"
        }
      ],
      "stateMutability": "view",
      "type": "function"
    },
    {
      "inputs": [
        {
          "internalType": "address",
          "name": "_EventOwner",
          "type": "address"
        },
        {
          "internalType": "uint256",
          "name": "_idEvt",
          "type": "uint256"
        }
      ],
      "name": "getEventById",
      "outputs": [
        {
          "components": [
            {
              "internalType": "uint256",
              "name": "id",
              "type": "uint256"
            },
            {
              "internalType": "string",
              "name": "namEvt",
              "type": "string"
            },
            {
              "internalType": "string",
              "name": "line2",
              "type": "string"
            },
            {
              "internalType": "string",
              "name": "dateStr",
              "type": "string"
            },
            {
              "internalType": "uint256",
              "name": "cantTicketsMax",
              "type": "uint256"
            },
            {
              "internalType": "uint256",
              "name": "price",
              "type": "uint256"
            },
            {
              "internalType": "uint256",
              "name": "dateOff",
              "type": "uint256"
            },
            {
              "internalType": "uint256",
              "name": "dateEvent",
              "type": "uint256"
            },
            {
              "internalType": "uint256",
              "name": "contTickets",
              "type": "uint256"
            },
            {
              "internalType": "string",
              "name": "urlImg",
              "type": "string"
            },
            {
              "internalType": "bool",
              "name": "freeEvent",
              "type": "bool"
            },
            {
              "internalType": "bool",
              "name": "paused",
              "type": "bool"
            }
          ],
          "internalType": "struct Events.EventSt",
          "name": "",
          "type": "tuple"
        }
      ],
      "stateMutability": "view",
      "type": "function"
    },
    {
      "inputs": [
        {
          "internalType": "address",
          "name": "ownerEvent",
          "type": "address"
        }
      ],
      "name": "getEventsByOwner",
      "outputs": [
        {
          "components": [
            {
              "internalType": "uint256",
              "name": "id",
              "type": "uint256"
            },
            {
              "internalType": "string",
              "name": "namEvt",
              "type": "string"
            },
            {
              "internalType": "string",
              "name": "line2",
              "type": "string"
            },
            {
              "internalType": "string",
              "name": "dateStr",
              "type": "string"
            },
            {
              "internalType": "uint256",
              "name": "cantTicketsMax",
              "type": "uint256"
            },
            {
              "internalType": "uint256",
              "name": "price",
              "type": "uint256"
            },
            {
              "internalType": "uint256",
              "name": "dateOff",
              "type": "uint256"
            },
            {
              "internalType": "uint256",
              "name": "dateEvent",
              "type": "uint256"
            },
            {
              "internalType": "uint256",
              "name": "contTickets",
              "type": "uint256"
            },
            {
              "internalType": "string",
              "name": "urlImg",
              "type": "string"
            },
            {
              "internalType": "bool",
              "name": "freeEvent",
              "type": "bool"
            },
            {
              "internalType": "bool",
              "name": "paused",
              "type": "bool"
            }
          ],
          "internalType": "struct Events.EventSt[]",
          "name": "",
          "type": "tuple[]"
        }
      ],
      "stateMutability": "view",
      "type": "function"
    },
    {
      "inputs": [],
      "name": "getEventsCount",
      "outputs": [
        {
          "internalType": "uint256",
          "name": "",
          "type": "uint256"
        }
      ],
      "stateMutability": "view",
      "type": "function"
    },
    {
      "inputs": [],
      "name": "getFeesSum",
      "outputs": [
        {
          "internalType": "uint256",
          "name": "",
          "type": "uint256"
        }
      ],
      "stateMutability": "view",
      "type": "function"
    },
    {
      "inputs": [
        {
          "internalType": "address",
          "name": "owner",
          "type": "address"
        },
        {
          "internalType": "address",
          "name": "operator",
          "type": "address"
        }
      ],
      "name": "isApprovedForAll",
      "outputs": [
        {
          "internalType": "bool",
          "name": "",
          "type": "bool"
        }
      ],
      "stateMutability": "view",
      "type": "function"
    },
    {
      "inputs": [],
      "name": "name",
      "outputs": [
        {
          "internalType": "string",
          "name": "",
          "type": "string"
        }
      ],
      "stateMutability": "view",
      "type": "function"
    },
    {
      "inputs": [
        {
          "internalType": "address payable",
          "name": "_EventOwner",
          "type": "address"
        },
        {
          "internalType": "uint256",
          "name": "_idEvt",
          "type": "uint256"
        }
      ],
      "name": "newTicket",
      "outputs": [],
      "stateMutability": "payable",
      "type": "function"
    },
    {
      "inputs": [
        {
          "internalType": "uint256",
          "name": "tokenId",
          "type": "uint256"
        }
      ],
      "name": "ownerOf",
      "outputs": [
        {
          "internalType": "address",
          "name": "",
          "type": "address"
        }
      ],
      "stateMutability": "view",
      "type": "function"
    },
    {
      "inputs": [
        {
          "internalType": "address",
          "name": "from",
          "type": "address"
        },
        {
          "internalType": "address",
          "name": "to",
          "type": "address"
        },
        {
          "internalType": "uint256",
          "name": "tokenId",
          "type": "uint256"
        }
      ],
      "name": "safeTransferFrom",
      "outputs": [],
      "stateMutability": "nonpayable",
      "type": "function"
    },
    {
      "inputs": [
        {
          "internalType": "address",
          "name": "from",
          "type": "address"
        },
        {
          "internalType": "address",
          "name": "to",
          "type": "address"
        },
        {
          "internalType": "uint256",
          "name": "tokenId",
          "type": "uint256"
        },
        {
          "internalType": "bytes",
          "name": "_data",
          "type": "bytes"
        }
      ],
      "name": "safeTransferFrom",
      "outputs": [],
      "stateMutability": "nonpayable",
      "type": "function"
    },
    {
      "inputs": [
        {
          "internalType": "address",
          "name": "operator",
          "type": "address"
        },
        {
          "internalType": "bool",
          "name": "approved",
          "type": "bool"
        }
      ],
      "name": "setApprovalForAll",
      "outputs": [],
      "stateMutability": "nonpayable",
      "type": "function"
    },
    {
      "inputs": [
        {
          "internalType": "bool",
          "name": "_paused",
          "type": "bool"
        }
      ],
      "name": "setPausedContract",
      "outputs": [],
      "stateMutability": "nonpayable",
      "type": "function"
    },
    {
      "inputs": [
        {
          "internalType": "uint256",
          "name": "_idEvt",
          "type": "uint256"
        },
        {
          "internalType": "bool",
          "name": "_paused",
          "type": "bool"
        }
      ],
      "name": "setPausedEvent",
      "outputs": [],
      "stateMutability": "nonpayable",
      "type": "function"
    },
    {
      "inputs": [
        {
          "internalType": "bytes4",
          "name": "interfaceId",
          "type": "bytes4"
        }
      ],
      "name": "supportsInterface",
      "outputs": [
        {
          "internalType": "bool",
          "name": "",
          "type": "bool"
        }
      ],
      "stateMutability": "view",
      "type": "function"
    },
    {
      "inputs": [],
      "name": "symbol",
      "outputs": [
        {
          "internalType": "string",
          "name": "",
          "type": "string"
        }
      ],
      "stateMutability": "view",
      "type": "function"
    },
    {
      "inputs": [
        {
          "internalType": "uint256",
          "name": "index",
          "type": "uint256"
        }
      ],
      "name": "tokenByIndex",
      "outputs": [
        {
          "internalType": "uint256",
          "name": "",
          "type": "uint256"
        }
      ],
      "stateMutability": "view",
      "type": "function"
    },
    {
      "inputs": [
        {
          "internalType": "address",
          "name": "owner",
          "type": "address"
        },
        {
          "internalType": "uint256",
          "name": "index",
          "type": "uint256"
        }
      ],
      "name": "tokenOfOwnerByIndex",
      "outputs": [
        {
          "internalType": "uint256",
          "name": "",
          "type": "uint256"
        }
      ],
      "stateMutability": "view",
      "type": "function"
    },
    {
      "inputs": [
        {
          "internalType": "uint256",
          "name": "_tokenId",
          "type": "uint256"
        }
      ],
      "name": "tokenURI",
      "outputs": [
        {
          "internalType": "string",
          "name": "",
          "type": "string"
        }
      ],
      "stateMutability": "view",
      "type": "function"
    },
    {
      "inputs": [],
      "name": "totalSupply",
      "outputs": [
        {
          "internalType": "uint256",
          "name": "",
          "type": "uint256"
        }
      ],
      "stateMutability": "view",
      "type": "function"
    },
    {
      "inputs": [],
      "name": "transferFees",
      "outputs": [],
      "stateMutability": "nonpayable",
      "type": "function"
    },
    {
      "inputs": [
        {
          "internalType": "address",
          "name": "from",
          "type": "address"
        },
        {
          "internalType": "address",
          "name": "to",
          "type": "address"
        },
        {
          "internalType": "uint256",
          "name": "tokenId",
          "type": "uint256"
        }
      ],
      "name": "transferFrom",
      "outputs": [],
      "stateMutability": "nonpayable",
      "type": "function"
    }
  ],
  "bytecode": "0x60806040526000600b60006101000a81548160ff0219169083151502179055503480156200002c57600080fd5b506040516200596c3803806200596c833981810160405281019062000052919062000274565b6040518060400160405280600c81526020017f436865636b496e4e4654563100000000000000000000000000000000000000008152506040518060400160405280600381526020017f43494e00000000000000000000000000000000000000000000000000000000008152508160009080519060200190620000d6929190620001ad565b508060019080519060200190620000ef929190620001ad565b5050506000600a8190555080600d60006101000a81548173ffffffffffffffffffffffffffffffffffffffff021916908373ffffffffffffffffffffffffffffffffffffffff16021790555060006013819055506019600d60146101000a81548167ffffffffffffffff021916908367ffffffffffffffff1602179055506000600c819055506703782dace9d90000600e60006101000a81548167ffffffffffffffff021916908367ffffffffffffffff1602179055505062000353565b828054620001bb90620002d4565b90600052602060002090601f016020900481019282620001df57600085556200022b565b82601f10620001fa57805160ff19168380011785556200022b565b828001600101855582156200022b579182015b828111156200022a5782518255916020019190600101906200020d565b5b5090506200023a91906200023e565b5090565b5b80821115620002595760008160009055506001016200023f565b5090565b6000815190506200026e8162000339565b92915050565b6000602082840312156200028757600080fd5b600062000297848285016200025d565b91505092915050565b6000620002ad82620002b4565b9050919050565b600073ffffffffffffffffffffffffffffffffffffffff82169050919050565b60006002820490506001821680620002ed57607f821691505b602082108114156200030457620003036200030a565b5b50919050565b7f4e487b7100000000000000000000000000000000000000000000000000000000600052602260045260246000fd5b6200034481620002a0565b81146200035057600080fd5b50565b61560980620003636000396000f3fe6080604052600436106101c25760003560e01c80636352211e116100f7578063a22cb46511610095578063c87b56dd11610064578063c87b56dd1461067d578063cd19ecd8146106ba578063d0506b25146106f7578063e985e9c514610713576101c2565b8063a22cb465146105d7578063af70f1cf14610600578063b88d4fde1461063d578063c2fbe7bc14610666576101c2565b80637beea3c0116100d15780637beea3c01461051b5780638ada066e146105445780638fbae8a21461056f57806395d89b41146105ac576101c2565b80636352211e1461046457806370a08231146104a157806374c2ad63146104de576101c2565b80632f745c591161016457806342842e0e1161013e57806342842e0e146103a55780634f6ccce7146103ce57806356f79e731461040b578063592b97d114610427576101c2565b80632f745c591461031457806330366d5f146103515780633aea79201461037c576101c2565b8063095ea7b3116101a0578063095ea7b31461026c57806311769de81461029557806318160ddd146102c057806323b872dd146102eb576101c2565b806301ffc9a7146101c757806306fdde0314610204578063081812fc1461022f575b600080fd5b3480156101d357600080fd5b506101ee60048036038101906101e99190613a41565b610750565b6040516101fb9190614600565b60405180910390f35b34801561021057600080fd5b50610219610762565b604051610226919061461b565b60405180910390f35b34801561023b57600080fd5b5061025660048036038101906102519190613c0f565b6107f4565b6040516102639190614555565b60405180910390f35b34801561027857600080fd5b50610293600480360381019061028e91906139dc565b610879565b005b3480156102a157600080fd5b506102aa610991565b6040516102b791906149a1565b60405180910390f35b3480156102cc57600080fd5b506102d561099b565b6040516102e291906149a1565b60405180910390f35b3480156102f757600080fd5b50610312600480360381019061030d91906138d6565b6109a8565b005b34801561032057600080fd5b5061033b600480360381019061033691906139dc565b610a08565b60405161034891906149a1565b60405180910390f35b34801561035d57600080fd5b50610366610aad565b60405161037391906149a1565b60405180910390f35b34801561038857600080fd5b506103a3600480360381019061039e9190613a18565b610ab7565b005b3480156103b157600080fd5b506103cc60048036038101906103c791906138d6565b610b2e565b005b3480156103da57600080fd5b506103f560048036038101906103f09190613c0f565b610b4e565b60405161040291906149a1565b60405180910390f35b6104256004803603810190610420919061385e565b610be5565b005b34801561043357600080fd5b5061044e60048036038101906104499190613835565b61149e565b60405161045b91906149a1565b60405180910390f35b34801561047057600080fd5b5061048b60048036038101906104869190613c0f565b6114ea565b6040516104989190614555565b60405180910390f35b3480156104ad57600080fd5b506104c860048036038101906104c39190613835565b61159c565b6040516104d591906149a1565b60405180910390f35b3480156104ea57600080fd5b5061050560048036038101906105009190613835565b611654565b60405161051291906145bc565b60405180910390f35b34801561052757600080fd5b50610542600480360381019061053d9190613c38565b6119ad565b005b34801561055057600080fd5b50610559611b47565b60405161056691906149a1565b60405180910390f35b34801561057b57600080fd5b50610596600480360381019061059191906139dc565b611b51565b6040516105a3919061495d565b60405180910390f35b3480156105b857600080fd5b506105c1611ca0565b6040516105ce919061461b565b60405180910390f35b3480156105e357600080fd5b506105fe60048036038101906105f991906139a0565b611d32565b005b34801561060c57600080fd5b5061062760048036038101906106229190613c74565b611d48565b60405161063491906149a1565b60405180910390f35b34801561064957600080fd5b50610664600480360381019061065f9190613925565b611da2565b005b34801561067257600080fd5b5061067b611e04565b005b34801561068957600080fd5b506106a4600480360381019061069f9190613c0f565b611f39565b6040516106b1919061461b565b60405180910390f35b3480156106c657600080fd5b506106e160048036038101906106dc9190613835565b612085565b6040516106ee91906145de565b60405180910390f35b610711600480360381019061070c9190613ad4565b61211c565b005b34801561071f57600080fd5b5061073a6004803603810190610735919061389a565b612474565b6040516107479190614600565b60405180910390f35b600061075b82612508565b9050919050565b60606000805461077190614df5565b80601f016020809104026020016040519081016040528092919081815260200182805461079d90614df5565b80156107ea5780601f106107bf576101008083540402835291602001916107ea565b820191906000526020600020905b8154815290600101906020018083116107cd57829003601f168201915b5050505050905090565b60006107ff82612582565b61083e576040517f08c379a00000000000000000000000000000000000000000000000000000000081526004016108359061487d565b60405180910390fd5b6004600083815260200190815260200160002060009054906101000a900473ffffffffffffffffffffffffffffffffffffffff169050919050565b6000610884826114ea565b90508073ffffffffffffffffffffffffffffffffffffffff168373ffffffffffffffffffffffffffffffffffffffff1614156108f5576040517f08c379a00000000000000000000000000000000000000000000000000000000081526004016108ec906148dd565b60405180910390fd5b8073ffffffffffffffffffffffffffffffffffffffff166109146125ee565b73ffffffffffffffffffffffffffffffffffffffff16148061094357506109428161093d6125ee565b612474565b5b610982576040517f08c379a00000000000000000000000000000000000000000000000000000000081526004016109799061479d565b60405180910390fd5b61098c83836125f6565b505050565b6000600c54905090565b6000600880549050905090565b6109b96109b36125ee565b826126af565b6109f8576040517f08c379a00000000000000000000000000000000000000000000000000000000081526004016109ef9061491d565b60405180910390fd5b610a0383838361278d565b505050565b6000610a138361159c565b8210610a54576040517f08c379a0000000000000000000000000000000000000000000000000000000008152600401610a4b9061467d565b60405180910390fd5b600660008473ffffffffffffffffffffffffffffffffffffffff1673ffffffffffffffffffffffffffffffffffffffff168152602001908152602001600020600083815260200190815260200160002054905092915050565b6000601354905090565b600d60009054906101000a900473ffffffffffffffffffffffffffffffffffffffff1673ffffffffffffffffffffffffffffffffffffffff163373ffffffffffffffffffffffffffffffffffffffff1614610b1157600080fd5b80600e60086101000a81548160ff02191690831515021790555050565b610b4983838360405180602001604052806000815250611da2565b505050565b6000610b5861099b565b8210610b99576040517f08c379a0000000000000000000000000000000000000000000000000000000008152600401610b909061493d565b60405180910390fd5b60088281548110610bd3577f4e487b7100000000000000000000000000000000000000000000000000000000600052603260045260246000fd5b90600052602060002001549050919050565b6000601060008473ffffffffffffffffffffffffffffffffffffffff1673ffffffffffffffffffffffffffffffffffffffff168152602001908152602001600020600183610c339190614cf9565b81548110610c6a577f4e487b7100000000000000000000000000000000000000000000000000000000600052603260045260246000fd5b90600052602060002090600b02016040518061018001604052908160008201548152602001600182018054610c9e90614df5565b80601f0160208091040260200160405190810160405280929190818152602001828054610cca90614df5565b8015610d175780601f10610cec57610100808354040283529160200191610d17565b820191906000526020600020905b815481529060010190602001808311610cfa57829003601f168201915b50505050508152602001600282018054610d3090614df5565b80601f0160208091040260200160405190810160405280929190818152602001828054610d5c90614df5565b8015610da95780601f10610d7e57610100808354040283529160200191610da9565b820191906000526020600020905b815481529060010190602001808311610d8c57829003601f168201915b50505050508152602001600382018054610dc290614df5565b80601f0160208091040260200160405190810160405280929190818152602001828054610dee90614df5565b8015610e3b5780601f10610e1057610100808354040283529160200191610e3b565b820191906000526020600020905b815481529060010190602001808311610e1e57829003601f168201915b505050505081526020016004820154815260200160058201548152602001600682015481526020016007820154815260200160088201548152602001600982018054610e8690614df5565b80601f0160208091040260200160405190810160405280929190818152602001828054610eb290614df5565b8015610eff5780601f10610ed457610100808354040283529160200191610eff565b820191906000526020600020905b815481529060010190602001808311610ee257829003601f168201915b50505050508152602001600a820160009054906101000a900460ff16151515158152602001600a820160019054906101000a900460ff16151515158152505090506000601060008573ffffffffffffffffffffffffffffffffffffffff1673ffffffffffffffffffffffffffffffffffffffff168152602001908152602001600020600184610f8e9190614cf9565b81548110610fc5577f4e487b7100000000000000000000000000000000000000000000000000000000600052603260045260246000fd5b90600052602060002090600b0201600001541415611018576040517f08c379a000000000000000000000000000000000000000000000000000000000815260040161100f906148bd565b60405180910390fd5b806101400151611083576110318160a001516001611d48565b8160a001516110409190614c18565b341015611082576040517f08c379a00000000000000000000000000000000000000000000000000000000081526004016110799061481d565b60405180910390fd5b5b806080015181610100015111156110cf576040517f08c379a00000000000000000000000000000000000000000000000000000000081526004016110c6906147bd565b60405180910390fd5b428160c001511015611116576040517f08c379a000000000000000000000000000000000000000000000000000000000815260040161110d9061489d565b60405180910390fd5b428160e00151101561115d576040517f08c379a00000000000000000000000000000000000000000000000000000000081526004016111549061475d565b60405180910390fd5b806101600151156111a3576040517f08c379a000000000000000000000000000000000000000000000000000000000815260040161119a9061465d565b60405180910390fd5b600b60009054906101000a900460ff16156111f3576040517f08c379a00000000000000000000000000000000000000000000000000000000081526004016111ea9061463d565b60405180910390fd5b6001600b60006101000a81548160ff02191690831515021790555060008373ffffffffffffffffffffffffffffffffffffffff166112368360a001516001611d48565b60018460a001516112479190614c9f565b6112519190614cf9565b60405161125d90614540565b60006040518083038185875af1925050503d806000811461129a576040519150601f19603f3d011682016040523d82523d6000602084013e61129f565b606091505b50509050806112e3576040517f08c379a00000000000000000000000000000000000000000000000000000000081526004016112da906148fd565b60405180910390fd5b6000600b60006101000a81548160ff02191690831515021790555061130d8260a001516001611d48565b600c600082825461131e9190614c18565b925050819055506001601060008673ffffffffffffffffffffffffffffffffffffffff1673ffffffffffffffffffffffffffffffffffffffff1681526020019081526020016000206001856113739190614cf9565b815481106113aa577f4e487b7100000000000000000000000000000000000000000000000000000000600052603260045260246000fd5b90600052602060002090600b020160080160008282546113ca9190614c18565b9250508190555060006113dc336129f4565b9050836011600083815260200190815260200160002081905550601260003373ffffffffffffffffffffffffffffffffffffffff1673ffffffffffffffffffffffffffffffffffffffff1681526020019081526020016000208190806001815401808255809150506001900390600052602060002001600090919091909150557ff21da2b310e39651e7e4d4a60a8823f6f5473b7e1c1d651ec8aee7fc068f1de384338360405161148f939291906149bc565b60405180910390a15050505050565b6000601060008373ffffffffffffffffffffffffffffffffffffffff1673ffffffffffffffffffffffffffffffffffffffff168152602001908152602001600020805490509050919050565b6000806002600084815260200190815260200160002060009054906101000a900473ffffffffffffffffffffffffffffffffffffffff169050600073ffffffffffffffffffffffffffffffffffffffff168173ffffffffffffffffffffffffffffffffffffffff161415611593576040517f08c379a000000000000000000000000000000000000000000000000000000000815260040161158a906147fd565b60405180910390fd5b80915050919050565b60008073ffffffffffffffffffffffffffffffffffffffff168273ffffffffffffffffffffffffffffffffffffffff16141561160d576040517f08c379a0000000000000000000000000000000000000000000000000000000008152600401611604906147dd565b60405180910390fd5b600360008373ffffffffffffffffffffffffffffffffffffffff1673ffffffffffffffffffffffffffffffffffffffff168152602001908152602001600020549050919050565b6060601060008373ffffffffffffffffffffffffffffffffffffffff1673ffffffffffffffffffffffffffffffffffffffff168152602001908152602001600020805480602002602001604051908101604052809291908181526020016000905b828210156119a257838290600052602060002090600b020160405180610180016040529081600082015481526020016001820180546116f390614df5565b80601f016020809104026020016040519081016040528092919081815260200182805461171f90614df5565b801561176c5780601f106117415761010080835404028352916020019161176c565b820191906000526020600020905b81548152906001019060200180831161174f57829003601f168201915b5050505050815260200160028201805461178590614df5565b80601f01602080910402602001604051908101604052809291908181526020018280546117b190614df5565b80156117fe5780601f106117d3576101008083540402835291602001916117fe565b820191906000526020600020905b8154815290600101906020018083116117e157829003601f168201915b5050505050815260200160038201805461181790614df5565b80601f016020809104026020016040519081016040528092919081815260200182805461184390614df5565b80156118905780601f1061186557610100808354040283529160200191611890565b820191906000526020600020905b81548152906001019060200180831161187357829003601f168201915b5050505050815260200160048201548152602001600582015481526020016006820154815260200160078201548152602001600882015481526020016009820180546118db90614df5565b80601f016020809104026020016040519081016040528092919081815260200182805461190790614df5565b80156119545780601f1061192957610100808354040283529160200191611954565b820191906000526020600020905b81548152906001019060200180831161193757829003601f168201915b50505050508152602001600a820160009054906101000a900460ff16151515158152602001600a820160019054906101000a900460ff161515151581525050815260200190600101906116b5565b505050509050919050565b6000601060003373ffffffffffffffffffffffffffffffffffffffff1673ffffffffffffffffffffffffffffffffffffffff16815260200190815260200160002080549050118015611a5857506000611a0533611654565b600184611a129190614cf9565b81518110611a49577f4e487b7100000000000000000000000000000000000000000000000000000000600052603260045260246000fd5b60200260200101516000015114155b611a97576040517f08c379a0000000000000000000000000000000000000000000000000000000008152600401611a8e9061483d565b60405180910390fd5b80601060003373ffffffffffffffffffffffffffffffffffffffff1673ffffffffffffffffffffffffffffffffffffffff168152602001908152602001600020600184611ae49190614cf9565b81548110611b1b577f4e487b7100000000000000000000000000000000000000000000000000000000600052603260045260246000fd5b90600052602060002090600b0201600a0160016101000a81548160ff0219169083151502179055505050565b6000600a54905090565b611b59613577565b6000601060008573ffffffffffffffffffffffffffffffffffffffff1673ffffffffffffffffffffffffffffffffffffffff16815260200190815260200160002080549050118015611c0457506000611bb184611654565b600184611bbe9190614cf9565b81518110611bf5577f4e487b7100000000000000000000000000000000000000000000000000000000600052603260045260246000fd5b60200260200101516000015114155b611c43576040517f08c379a0000000000000000000000000000000000000000000000000000000008152600401611c3a9061483d565b60405180910390fd5b611c4c83611654565b600183611c599190614cf9565b81518110611c90577f4e487b7100000000000000000000000000000000000000000000000000000000600052603260045260246000fd5b6020026020010151905092915050565b606060018054611caf90614df5565b80601f0160208091040260200160405190810160405280929190818152602001828054611cdb90614df5565b8015611d285780601f10611cfd57610100808354040283529160200191611d28565b820191906000526020600020905b815481529060010190602001808311611d0b57829003601f168201915b5050505050905090565b611d44611d3d6125ee565b8383612a28565b5050565b6000612710600d60149054906101000a900467ffffffffffffffff1667ffffffffffffffff1683600186611d7c9190614c9f565b611d869190614c9f565b611d909190614c9f565b611d9a9190614c6e565b905092915050565b611db3611dad6125ee565b836126af565b611df2576040517f08c379a0000000000000000000000000000000000000000000000000000000008152600401611de99061491d565b60405180910390fd5b611dfe84848484612b95565b50505050565b3373ffffffffffffffffffffffffffffffffffffffff16600d60009054906101000a900473ffffffffffffffffffffffffffffffffffffffff1673ffffffffffffffffffffffffffffffffffffffff1614611e5e57600080fd5b6000600d60009054906101000a900473ffffffffffffffffffffffffffffffffffffffff1673ffffffffffffffffffffffffffffffffffffffff16600c54604051611ea890614540565b60006040518083038185875af1925050503d8060008114611ee5576040519150601f19603f3d011682016040523d82523d6000602084013e611eea565b606091505b5050905080611f2e576040517f08c379a0000000000000000000000000000000000000000000000000000000008152600401611f25906148fd565b60405180910390fd5b6000600c8190555050565b60606000611f46836114ea565b90506000601160008581526020019081526020016000205490506000600f600083815260200190815260200160002060009054906101000a900473ffffffffffffffffffffffffffffffffffffffff1690506000611fa48284611b51565b905073__$cdf6c5f1a8e84707929d2cdc5f331caf3a$__63677598b46040518060a001604052808460200151815260200184604001518152602001846060015181526020018773ffffffffffffffffffffffffffffffffffffffff168152602001898152506040518263ffffffff1660e01b8152600401612025919061497f565b60006040518083038186803b15801561203d57600080fd5b505af4158015612051573d6000803e3d6000fd5b505050506040513d6000823e3d601f19601f8201168201806040525081019061207a9190613a93565b945050505050919050565b6060601260008373ffffffffffffffffffffffffffffffffffffffff1673ffffffffffffffffffffffffffffffffffffffff16815260200190815260200160002080548060200260200160405190810160405280929190818152602001828054801561211057602002820191906000526020600020905b8154815260200190600101908083116120fc575b50505050509050919050565b6000826121325761212d8789611d48565b612154565b600e60009054906101000a900467ffffffffffffffff1667ffffffffffffffff165b905060008811612199576040517f08c379a0000000000000000000000000000000000000000000000000000000008152600401612190906146bd565b60405180910390fd5b803410156121dc576040517f08c379a00000000000000000000000000000000000000000000000000000000081526004016121d39061481d565b60405180910390fd5b80600c60008282546121ee9190614c18565b925050819055506001601360008282546122089190614c18565b9250508190555033600f6000601354815260200190815260200160002060006101000a81548173ffffffffffffffffffffffffffffffffffffffff021916908373ffffffffffffffffffffffffffffffffffffffff160217905550601060003373ffffffffffffffffffffffffffffffffffffffff1673ffffffffffffffffffffffffffffffffffffffff16815260200190815260200160002060405180610180016040528060135481526020018d81526020018c81526020018b81526020018a815260200189815260200188815260200187815260200160008152602001868152602001851515815260200184151581525090806001815401808255809150506001900390600052602060002090600b020160009091909190915060008201518160000155602082015181600101908051906020019061234a9291906135dc565b5060408201518160020190805190602001906123679291906135dc565b5060608201518160030190805190602001906123849291906135dc565b506080820151816004015560a0820151816005015560c0820151816006015560e0820151816007015561010082015181600801556101208201518160090190805190602001906123d59291906135dc565b5061014082015181600a0160006101000a81548160ff02191690831515021790555061016082015181600a0160016101000a81548160ff02191690831515021790555050507f1eaebadfba6c0e9b06f925ccb172a75b6d241645916f156f1596fd95ee1b65876013548c8c8c8c8c8c8c8c8c8c60405161245f9b9a999897969594939291906149f3565b60405180910390a15050505050505050505050565b6000600560008473ffffffffffffffffffffffffffffffffffffffff1673ffffffffffffffffffffffffffffffffffffffff16815260200190815260200160002060008373ffffffffffffffffffffffffffffffffffffffff1673ffffffffffffffffffffffffffffffffffffffff16815260200190815260200160002060009054906101000a900460ff16905092915050565b60007f780e9d63000000000000000000000000000000000000000000000000000000007bffffffffffffffffffffffffffffffffffffffffffffffffffffffff1916827bffffffffffffffffffffffffffffffffffffffffffffffffffffffff1916148061257b575061257a82612bf1565b5b9050919050565b60008073ffffffffffffffffffffffffffffffffffffffff166002600084815260200190815260200160002060009054906101000a900473ffffffffffffffffffffffffffffffffffffffff1673ffffffffffffffffffffffffffffffffffffffff1614159050919050565b600033905090565b816004600083815260200190815260200160002060006101000a81548173ffffffffffffffffffffffffffffffffffffffff021916908373ffffffffffffffffffffffffffffffffffffffff160217905550808273ffffffffffffffffffffffffffffffffffffffff16612669836114ea565b73ffffffffffffffffffffffffffffffffffffffff167f8c5be1e5ebec7d5bd14f71427d1e84f3dd0314c0f7b2291e5b200ac8c7c3b92560405160405180910390a45050565b60006126ba82612582565b6126f9576040517f08c379a00000000000000000000000000000000000000000000000000000000081526004016126f09061477d565b60405180910390fd5b6000612704836114ea565b90508073ffffffffffffffffffffffffffffffffffffffff168473ffffffffffffffffffffffffffffffffffffffff16148061274657506127458185612474565b5b8061278457508373ffffffffffffffffffffffffffffffffffffffff1661276c846107f4565b73ffffffffffffffffffffffffffffffffffffffff16145b91505092915050565b8273ffffffffffffffffffffffffffffffffffffffff166127ad826114ea565b73ffffffffffffffffffffffffffffffffffffffff1614612803576040517f08c379a00000000000000000000000000000000000000000000000000000000081526004016127fa906146dd565b60405180910390fd5b600073ffffffffffffffffffffffffffffffffffffffff168273ffffffffffffffffffffffffffffffffffffffff161415612873576040517f08c379a000000000000000000000000000000000000000000000000000000000815260040161286a9061471d565b60405180910390fd5b61287e838383612cd3565b6128896000826125f6565b6001600360008573ffffffffffffffffffffffffffffffffffffffff1673ffffffffffffffffffffffffffffffffffffffff16815260200190815260200160002060008282546128d99190614cf9565b925050819055506001600360008473ffffffffffffffffffffffffffffffffffffffff1673ffffffffffffffffffffffffffffffffffffffff16815260200190815260200160002060008282546129309190614c18565b92505081905550816002600083815260200190815260200160002060006101000a81548173ffffffffffffffffffffffffffffffffffffffff021916908373ffffffffffffffffffffffffffffffffffffffff160217905550808273ffffffffffffffffffffffffffffffffffffffff168473ffffffffffffffffffffffffffffffffffffffff167fddf252ad1be2c89b69c2b068fc378daa952ba7f163c4a11628f55a4df523b3ef60405160405180910390a46129ef838383612ce3565b505050565b6000600a6000815480929190612a0990614e58565b91905055506000600a549050612a1f8382612ce8565b80915050919050565b8173ffffffffffffffffffffffffffffffffffffffff168373ffffffffffffffffffffffffffffffffffffffff161415612a97576040517f08c379a0000000000000000000000000000000000000000000000000000000008152600401612a8e9061473d565b60405180910390fd5b80600560008573ffffffffffffffffffffffffffffffffffffffff1673ffffffffffffffffffffffffffffffffffffffff16815260200190815260200160002060008473ffffffffffffffffffffffffffffffffffffffff1673ffffffffffffffffffffffffffffffffffffffff16815260200190815260200160002060006101000a81548160ff0219169083151502179055508173ffffffffffffffffffffffffffffffffffffffff168373ffffffffffffffffffffffffffffffffffffffff167f17307eab39ab6107e8899845ad3d59bd9653f200f220920489ca2b5937696c3183604051612b889190614600565b60405180910390a3505050565b612ba084848461278d565b612bac84848484612ec2565b612beb576040517f08c379a0000000000000000000000000000000000000000000000000000000008152600401612be29061469d565b60405180910390fd5b50505050565b60007f80ac58cd000000000000000000000000000000000000000000000000000000007bffffffffffffffffffffffffffffffffffffffffffffffffffffffff1916827bffffffffffffffffffffffffffffffffffffffffffffffffffffffff19161480612cbc57507f5b5e139f000000000000000000000000000000000000000000000000000000007bffffffffffffffffffffffffffffffffffffffffffffffffffffffff1916827bffffffffffffffffffffffffffffffffffffffffffffffffffffffff1916145b80612ccc5750612ccb82613059565b5b9050919050565b612cde8383836130c3565b505050565b505050565b600073ffffffffffffffffffffffffffffffffffffffff168273ffffffffffffffffffffffffffffffffffffffff161415612d58576040517f08c379a0000000000000000000000000000000000000000000000000000000008152600401612d4f9061485d565b60405180910390fd5b612d6181612582565b15612da1576040517f08c379a0000000000000000000000000000000000000000000000000000000008152600401612d98906146fd565b60405180910390fd5b612dad60008383612cd3565b6001600360008473ffffffffffffffffffffffffffffffffffffffff1673ffffffffffffffffffffffffffffffffffffffff1681526020019081526020016000206000828254612dfd9190614c18565b92505081905550816002600083815260200190815260200160002060006101000a81548173ffffffffffffffffffffffffffffffffffffffff021916908373ffffffffffffffffffffffffffffffffffffffff160217905550808273ffffffffffffffffffffffffffffffffffffffff16600073ffffffffffffffffffffffffffffffffffffffff167fddf252ad1be2c89b69c2b068fc378daa952ba7f163c4a11628f55a4df523b3ef60405160405180910390a4612ebe60008383612ce3565b5050565b6000612ee38473ffffffffffffffffffffffffffffffffffffffff166131d7565b1561304c578373ffffffffffffffffffffffffffffffffffffffff1663150b7a02612f0c6125ee565b8786866040518563ffffffff1660e01b8152600401612f2e9493929190614570565b602060405180830381600087803b158015612f4857600080fd5b505af1925050508015612f7957506040513d601f19601f82011682018060405250810190612f769190613a6a565b60015b612ffc573d8060008114612fa9576040519150601f19603f3d011682016040523d82523d6000602084013e612fae565b606091505b50600081511415612ff4576040517f08c379a0000000000000000000000000000000000000000000000000000000008152600401612feb9061469d565b60405180910390fd5b805181602001fd5b63150b7a0260e01b7bffffffffffffffffffffffffffffffffffffffffffffffffffffffff1916817bffffffffffffffffffffffffffffffffffffffffffffffffffffffff191614915050613051565b600190505b949350505050565b60007f01ffc9a7000000000000000000000000000000000000000000000000000000007bffffffffffffffffffffffffffffffffffffffffffffffffffffffff1916827bffffffffffffffffffffffffffffffffffffffffffffffffffffffff1916149050919050565b6130ce8383836131fa565b600073ffffffffffffffffffffffffffffffffffffffff168373ffffffffffffffffffffffffffffffffffffffff1614156131115761310c816131ff565b613150565b8173ffffffffffffffffffffffffffffffffffffffff168373ffffffffffffffffffffffffffffffffffffffff161461314f5761314e8382613248565b5b5b600073ffffffffffffffffffffffffffffffffffffffff168273ffffffffffffffffffffffffffffffffffffffff1614156131935761318e816133b5565b6131d2565b8273ffffffffffffffffffffffffffffffffffffffff168273ffffffffffffffffffffffffffffffffffffffff16146131d1576131d082826134f8565b5b5b505050565b6000808273ffffffffffffffffffffffffffffffffffffffff163b119050919050565b505050565b6008805490506009600083815260200190815260200160002081905550600881908060018154018082558091505060019003906000526020600020016000909190919091505550565b600060016132558461159c565b61325f9190614cf9565b9050600060076000848152602001908152602001600020549050818114613344576000600660008673ffffffffffffffffffffffffffffffffffffffff1673ffffffffffffffffffffffffffffffffffffffff168152602001908152602001600020600084815260200190815260200160002054905080600660008773ffffffffffffffffffffffffffffffffffffffff1673ffffffffffffffffffffffffffffffffffffffff168152602001908152602001600020600084815260200190815260200160002081905550816007600083815260200190815260200160002081905550505b6007600084815260200190815260200160002060009055600660008573ffffffffffffffffffffffffffffffffffffffff1673ffffffffffffffffffffffffffffffffffffffff16815260200190815260200160002060008381526020019081526020016000206000905550505050565b600060016008805490506133c99190614cf9565b905060006009600084815260200190815260200160002054905060006008838154811061341f577f4e487b7100000000000000000000000000000000000000000000000000000000600052603260045260246000fd5b906000526020600020015490508060088381548110613467577f4e487b7100000000000000000000000000000000000000000000000000000000600052603260045260246000fd5b9060005260206000200181905550816009600083815260200190815260200160002081905550600960008581526020019081526020016000206000905560088054806134dc577f4e487b7100000000000000000000000000000000000000000000000000000000600052603160045260246000fd5b6001900381819060005260206000200160009055905550505050565b60006135038361159c565b905081600660008573ffffffffffffffffffffffffffffffffffffffff1673ffffffffffffffffffffffffffffffffffffffff168152602001908152602001600020600083815260200190815260200160002081905550806007600084815260200190815260200160002081905550505050565b604051806101800160405280600081526020016060815260200160608152602001606081526020016000815260200160008152602001600081526020016000815260200160008152602001606081526020016000151581526020016000151581525090565b8280546135e890614df5565b90600052602060002090601f01602090048101928261360a5760008555613651565b82601f1061362357805160ff1916838001178555613651565b82800160010185558215613651579182015b82811115613650578251825591602001919060010190613635565b5b50905061365e9190613662565b5090565b5b8082111561367b576000816000905550600101613663565b5090565b600061369261368d84614adf565b614aba565b9050828152602081018484840111156136aa57600080fd5b6136b5848285614db3565b509392505050565b60006136d06136cb84614b10565b614aba565b9050828152602081018484840111156136e857600080fd5b6136f3848285614db3565b509392505050565b600061370e61370984614b10565b614aba565b90508281526020810184848401111561372657600080fd5b613731848285614dc2565b509392505050565b60008135905061374881615560565b92915050565b60008135905061375d81615577565b92915050565b6000813590506137728161558e565b92915050565b600081359050613787816155a5565b92915050565b60008151905061379c816155a5565b92915050565b600082601f8301126137b357600080fd5b81356137c384826020860161367f565b91505092915050565b600082601f8301126137dd57600080fd5b81356137ed8482602086016136bd565b91505092915050565b600082601f83011261380757600080fd5b81516138178482602086016136fb565b91505092915050565b60008135905061382f816155bc565b92915050565b60006020828403121561384757600080fd5b600061385584828501613739565b91505092915050565b6000806040838503121561387157600080fd5b600061387f8582860161374e565b925050602061389085828601613820565b9150509250929050565b600080604083850312156138ad57600080fd5b60006138bb85828601613739565b92505060206138cc85828601613739565b9150509250929050565b6000806000606084860312156138eb57600080fd5b60006138f986828701613739565b935050602061390a86828701613739565b925050604061391b86828701613820565b9150509250925092565b6000806000806080858703121561393b57600080fd5b600061394987828801613739565b945050602061395a87828801613739565b935050604061396b87828801613820565b925050606085013567ffffffffffffffff81111561398857600080fd5b613994878288016137a2565b91505092959194509250565b600080604083850312156139b357600080fd5b60006139c185828601613739565b92505060206139d285828601613763565b9150509250929050565b600080604083850312156139ef57600080fd5b60006139fd85828601613739565b9250506020613a0e85828601613820565b9150509250929050565b600060208284031215613a2a57600080fd5b6000613a3884828501613763565b91505092915050565b600060208284031215613a5357600080fd5b6000613a6184828501613778565b91505092915050565b600060208284031215613a7c57600080fd5b6000613a8a8482850161378d565b91505092915050565b600060208284031215613aa557600080fd5b600082015167ffffffffffffffff811115613abf57600080fd5b613acb848285016137f6565b91505092915050565b6000806000806000806000806000806101408b8d031215613af457600080fd5b60008b013567ffffffffffffffff811115613b0e57600080fd5b613b1a8d828e016137cc565b9a505060208b013567ffffffffffffffff811115613b3757600080fd5b613b438d828e016137cc565b99505060408b013567ffffffffffffffff811115613b6057600080fd5b613b6c8d828e016137cc565b9850506060613b7d8d828e01613820565b9750506080613b8e8d828e01613820565b96505060a0613b9f8d828e01613820565b95505060c0613bb08d828e01613820565b94505060e08b013567ffffffffffffffff811115613bcd57600080fd5b613bd98d828e016137cc565b935050610100613beb8d828e01613763565b925050610120613bfd8d828e01613763565b9150509295989b9194979a5092959850565b600060208284031215613c2157600080fd5b6000613c2f84828501613820565b91505092915050565b60008060408385031215613c4b57600080fd5b6000613c5985828601613820565b9250506020613c6a85828601613763565b9150509250929050565b60008060408385031215613c8757600080fd5b6000613c9585828601613820565b9250506020613ca685828601613820565b9150509250929050565b6000613cbc838361425d565b905092915050565b6000613cd08383614513565b60208301905092915050565b613ce581614d2d565b82525050565b613cf481614d2d565b82525050565b6000613d0582614b61565b613d0f8185614ba7565b935083602082028501613d2185614b41565b8060005b85811015613d5d5784840389528151613d3e8582613cb0565b9450613d4983614b8d565b925060208a01995050600181019050613d25565b50829750879550505050505092915050565b6000613d7a82614b6c565b613d848185614bb8565b9350613d8f83614b51565b8060005b83811015613dc0578151613da78882613cc4565b9750613db283614b9a565b925050600181019050613d93565b5085935050505092915050565b613dd681614d51565b82525050565b613de581614d51565b82525050565b6000613df682614b77565b613e008185614bc9565b9350613e10818560208601614dc2565b613e1981614f5d565b840191505092915050565b6000613e2f82614b82565b613e398185614be5565b9350613e49818560208601614dc2565b613e5281614f5d565b840191505092915050565b6000613e6882614b82565b613e728185614bf6565b9350613e82818560208601614dc2565b613e8b81614f5d565b840191505092915050565b6000613ea182614b82565b613eab8185614c07565b9350613ebb818560208601614dc2565b613ec481614f5d565b840191505092915050565b6000613edc601883614bf6565b9150613ee782614f6e565b602082019050919050565b6000613eff600f83614bf6565b9150613f0a82614f97565b602082019050919050565b6000613f22602b83614bf6565b9150613f2d82614fc0565b604082019050919050565b6000613f45603283614bf6565b9150613f508261500f565b604082019050919050565b6000613f68602583614bf6565b9150613f738261505e565b604082019050919050565b6000613f8b602583614bf6565b9150613f96826150ad565b604082019050919050565b6000613fae601c83614bf6565b9150613fb9826150fc565b602082019050919050565b6000613fd1602483614bf6565b9150613fdc82615125565b604082019050919050565b6000613ff4601983614bf6565b9150613fff82615174565b602082019050919050565b6000614017600c83614bf6565b91506140228261519d565b602082019050919050565b600061403a602c83614bf6565b9150614045826151c6565b604082019050919050565b600061405d603883614bf6565b915061406882615215565b604082019050919050565b6000614080600783614bf6565b915061408b82615264565b602082019050919050565b60006140a3602a83614bf6565b91506140ae8261528d565b604082019050919050565b60006140c6602983614bf6565b91506140d1826152dc565b604082019050919050565b60006140e9600a83614bf6565b91506140f48261532b565b602082019050919050565b600061410c601383614bf6565b915061411782615354565b602082019050919050565b600061412f602083614bf6565b915061413a8261537d565b602082019050919050565b6000614152602c83614bf6565b915061415d826153a6565b604082019050919050565b6000614175601183614bf6565b9150614180826153f5565b602082019050919050565b6000614198600f83614bf6565b91506141a38261541e565b602082019050919050565b60006141bb602183614bf6565b91506141c682615447565b604082019050919050565b60006141de600083614bda565b91506141e982615496565b600082019050919050565b6000614201601083614bf6565b915061420c82615499565b602082019050919050565b6000614224603183614bf6565b915061422f826154c2565b604082019050919050565b6000614247602c83614bf6565b915061425282615511565b604082019050919050565b6000610180830160008301516142766000860182614513565b506020830151848203602086015261428e8282613e24565b915050604083015184820360408601526142a88282613e24565b915050606083015184820360608601526142c28282613e24565b91505060808301516142d76080860182614513565b5060a08301516142ea60a0860182614513565b5060c08301516142fd60c0860182614513565b5060e083015161431060e0860182614513565b50610100830151614325610100860182614513565b5061012083015184820361012086015261433f8282613e24565b915050610140830151614356610140860182613dcd565b5061016083015161436b610160860182613dcd565b508091505092915050565b60006101808301600083015161438f6000860182614513565b50602083015184820360208601526143a78282613e24565b915050604083015184820360408601526143c18282613e24565b915050606083015184820360608601526143db8282613e24565b91505060808301516143f06080860182614513565b5060a083015161440360a0860182614513565b5060c083015161441660c0860182614513565b5060e083015161442960e0860182614513565b5061010083015161443e610100860182614513565b506101208301518482036101208601526144588282613e24565b91505061014083015161446f610140860182613dcd565b50610160830151614484610160860182613dcd565b508091505092915050565b600060a08301600083015184820360008601526144ac8282613e96565b915050602083015184820360208601526144c68282613e96565b915050604083015184820360408601526144e08282613e96565b91505060608301516144f56060860182613ceb565b5060808301516145086080860182614531565b508091505092915050565b61451c81614da9565b82525050565b61452b81614da9565b82525050565b61453a81614da9565b82525050565b600061454b826141d1565b9150819050919050565b600060208201905061456a6000830184613cdc565b92915050565b60006080820190506145856000830187613cdc565b6145926020830186613cdc565b61459f6040830185614522565b81810360608301526145b18184613deb565b905095945050505050565b600060208201905081810360008301526145d68184613cfa565b905092915050565b600060208201905081810360008301526145f88184613d6f565b905092915050565b60006020820190506146156000830184613ddc565b92915050565b600060208201905081810360008301526146358184613e5d565b905092915050565b6000602082019050818103600083015261465681613ecf565b9050919050565b6000602082019050818103600083015261467681613ef2565b9050919050565b6000602082019050818103600083015261469681613f15565b9050919050565b600060208201905081810360008301526146b681613f38565b9050919050565b600060208201905081810360008301526146d681613f5b565b9050919050565b600060208201905081810360008301526146f681613f7e565b9050919050565b6000602082019050818103600083015261471681613fa1565b9050919050565b6000602082019050818103600083015261473681613fc4565b9050919050565b6000602082019050818103600083015261475681613fe7565b9050919050565b600060208201905081810360008301526147768161400a565b9050919050565b600060208201905081810360008301526147968161402d565b9050919050565b600060208201905081810360008301526147b681614050565b9050919050565b600060208201905081810360008301526147d681614073565b9050919050565b600060208201905081810360008301526147f681614096565b9050919050565b60006020820190508181036000830152614816816140b9565b9050919050565b60006020820190508181036000830152614836816140dc565b9050919050565b60006020820190508181036000830152614856816140ff565b9050919050565b6000602082019050818103600083015261487681614122565b9050919050565b6000602082019050818103600083015261489681614145565b9050919050565b600060208201905081810360008301526148b681614168565b9050919050565b600060208201905081810360008301526148d68161418b565b9050919050565b600060208201905081810360008301526148f6816141ae565b9050919050565b60006020820190508181036000830152614916816141f4565b9050919050565b6000602082019050818103600083015261493681614217565b9050919050565b600060208201905081810360008301526149568161423a565b9050919050565b600060208201905081810360008301526149778184614376565b905092915050565b60006020820190508181036000830152614999818461448f565b905092915050565b60006020820190506149b66000830184614522565b92915050565b60006060820190506149d16000830186614522565b6149de6020830185613cdc565b6149eb6040830184614522565b949350505050565b600061016082019050614a09600083018e614522565b8181036020830152614a1b818d613e5d565b90508181036040830152614a2f818c613e5d565b90508181036060830152614a43818b613e5d565b9050614a52608083018a614522565b614a5f60a0830189614522565b614a6c60c0830188614522565b614a7960e0830187614522565b818103610100830152614a8c8186613e5d565b9050614a9c610120830185613ddc565b614aaa610140830184613ddc565b9c9b505050505050505050505050565b6000614ac4614ad5565b9050614ad08282614e27565b919050565b6000604051905090565b600067ffffffffffffffff821115614afa57614af9614f2e565b5b614b0382614f5d565b9050602081019050919050565b600067ffffffffffffffff821115614b2b57614b2a614f2e565b5b614b3482614f5d565b9050602081019050919050565b6000819050602082019050919050565b6000819050602082019050919050565b600081519050919050565b600081519050919050565b600081519050919050565b600081519050919050565b6000602082019050919050565b6000602082019050919050565b600082825260208201905092915050565b600082825260208201905092915050565b600082825260208201905092915050565b600081905092915050565b600082825260208201905092915050565b600082825260208201905092915050565b600082825260208201905092915050565b6000614c2382614da9565b9150614c2e83614da9565b9250827fffffffffffffffffffffffffffffffffffffffffffffffffffffffffffffffff03821115614c6357614c62614ea1565b5b828201905092915050565b6000614c7982614da9565b9150614c8483614da9565b925082614c9457614c93614ed0565b5b828204905092915050565b6000614caa82614da9565b9150614cb583614da9565b9250817fffffffffffffffffffffffffffffffffffffffffffffffffffffffffffffffff0483118215151615614cee57614ced614ea1565b5b828202905092915050565b6000614d0482614da9565b9150614d0f83614da9565b925082821015614d2257614d21614ea1565b5b828203905092915050565b6000614d3882614d89565b9050919050565b6000614d4a82614d89565b9050919050565b60008115159050919050565b60007fffffffff0000000000000000000000000000000000000000000000000000000082169050919050565b600073ffffffffffffffffffffffffffffffffffffffff82169050919050565b6000819050919050565b82818337600083830152505050565b60005b83811015614de0578082015181840152602081019050614dc5565b83811115614def576000848401525b50505050565b60006002820490506001821680614e0d57607f821691505b60208210811415614e2157614e20614eff565b5b50919050565b614e3082614f5d565b810181811067ffffffffffffffff82111715614e4f57614e4e614f2e565b5b80604052505050565b6000614e6382614da9565b91507fffffffffffffffffffffffffffffffffffffffffffffffffffffffffffffffff821415614e9657614e95614ea1565b5b600182019050919050565b7f4e487b7100000000000000000000000000000000000000000000000000000000600052601160045260246000fd5b7f4e487b7100000000000000000000000000000000000000000000000000000000600052601260045260246000fd5b7f4e487b7100000000000000000000000000000000000000000000000000000000600052602260045260246000fd5b7f4e487b7100000000000000000000000000000000000000000000000000000000600052604160045260246000fd5b6000601f19601f8301169050919050565b7f5265656e7472616e742063616c6c206465746563746564210000000000000000600082015250565b7f4576656e74206973207061757365640000000000000000000000000000000000600082015250565b7f455243373231456e756d657261626c653a206f776e657220696e646578206f7560008201527f74206f6620626f756e6473000000000000000000000000000000000000000000602082015250565b7f4552433732313a207472616e7366657220746f206e6f6e20455243373231526560008201527f63656976657220696d706c656d656e7465720000000000000000000000000000602082015250565b7f63616e745469636b6574734d6178206d7573742062652067726561746572207460008201527f68616e2030000000000000000000000000000000000000000000000000000000602082015250565b7f4552433732313a207472616e736665722066726f6d20696e636f72726563742060008201527f6f776e6572000000000000000000000000000000000000000000000000000000602082015250565b7f4552433732313a20746f6b656e20616c7265616479206d696e74656400000000600082015250565b7f4552433732313a207472616e7366657220746f20746865207a65726f2061646460008201527f7265737300000000000000000000000000000000000000000000000000000000602082015250565b7f4552433732313a20617070726f766520746f2063616c6c657200000000000000600082015250565b7f4576656e7420697320656e640000000000000000000000000000000000000000600082015250565b7f4552433732313a206f70657261746f7220717565727920666f72206e6f6e657860008201527f697374656e7420746f6b656e0000000000000000000000000000000000000000602082015250565b7f4552433732313a20617070726f76652063616c6c6572206973206e6f74206f7760008201527f6e6572206e6f7220617070726f76656420666f7220616c6c0000000000000000602082015250565b7f536f6c646f757400000000000000000000000000000000000000000000000000600082015250565b7f4552433732313a2062616c616e636520717565727920666f7220746865207a6560008201527f726f206164647265737300000000000000000000000000000000000000000000602082015250565b7f4552433732313a206f776e657220717565727920666f72206e6f6e657869737460008201527f656e7420746f6b656e0000000000000000000000000000000000000000000000602082015250565b7f4e6f7420666f756e647300000000000000000000000000000000000000000000600082015250565b7f4f776e657220686173206e6f206576656e747300000000000000000000000000600082015250565b7f4552433732313a206d696e7420746f20746865207a65726f2061646472657373600082015250565b7f4552433732313a20617070726f76656420717565727920666f72206e6f6e657860008201527f697374656e7420746f6b656e0000000000000000000000000000000000000000602082015250565b7f4576656e742073656c6c20697320656e64000000000000000000000000000000600082015250565b7f4576656e74206e6f742065786973740000000000000000000000000000000000600082015250565b7f4552433732313a20617070726f76616c20746f2063757272656e74206f776e6560008201527f7200000000000000000000000000000000000000000000000000000000000000602082015250565b50565b7f5472616e73666572206661696c65642e00000000000000000000000000000000600082015250565b7f4552433732313a207472616e736665722063616c6c6572206973206e6f74206f60008201527f776e6572206e6f7220617070726f766564000000000000000000000000000000602082015250565b7f455243373231456e756d657261626c653a20676c6f62616c20696e646578206f60008201527f7574206f6620626f756e64730000000000000000000000000000000000000000602082015250565b61556981614d2d565b811461557457600080fd5b50565b61558081614d3f565b811461558b57600080fd5b50565b61559781614d51565b81146155a257600080fd5b50565b6155ae81614d5d565b81146155b957600080fd5b50565b6155c581614da9565b81146155d057600080fd5b5056fea2646970667358221220ae0d5f469f69c1228d991fadb1f7260c20a97602e9633a6b9098940290b75e0364736f6c63430008040033",
  "linkReferences": {
    "contracts/GenTicketURI.sol": {
      "GenTicketURI": [
        {
          "length": 20,
          "start": 8971
        }
      ]
    }
  },
  "deployedLinkReferences": {
    "contracts/GenTicketURI.sol": {
      "GenTicketURI": [
        {
          "length": 20,
          "start": 8104
        }
      ]
    }
  }
}